{
  "contractName": "CustomERC721",
  "abi": [
    {
      "inputs": [],
      "stateMutability": "nonpayable",
      "type": "constructor"
    },
    {
      "anonymous": false,
      "inputs": [
        {
          "indexed": true,
          "internalType": "address",
          "name": "owner",
          "type": "address"
        },
        {
          "indexed": true,
          "internalType": "address",
          "name": "approved",
          "type": "address"
        },
        {
          "indexed": true,
          "internalType": "uint256",
          "name": "tokenId",
          "type": "uint256"
        }
      ],
      "name": "Approval",
      "type": "event"
    },
    {
      "anonymous": false,
      "inputs": [
        {
          "indexed": true,
          "internalType": "address",
          "name": "owner",
          "type": "address"
        },
        {
          "indexed": true,
          "internalType": "address",
          "name": "operator",
          "type": "address"
        },
        {
          "indexed": false,
          "internalType": "bool",
          "name": "approved",
          "type": "bool"
        }
      ],
      "name": "ApprovalForAll",
      "type": "event"
    },
    {
      "anonymous": false,
      "inputs": [
        {
          "indexed": false,
          "internalType": "address",
          "name": "userAddress",
          "type": "address"
        },
        {
          "indexed": false,
          "internalType": "address payable",
          "name": "relayerAddress",
          "type": "address"
        },
        {
          "indexed": false,
          "internalType": "bytes",
          "name": "functionSignature",
          "type": "bytes"
        }
      ],
      "name": "MetaTransactionExecuted",
      "type": "event"
    },
    {
      "anonymous": false,
      "inputs": [
        {
          "indexed": true,
          "internalType": "address",
          "name": "previousOwner",
          "type": "address"
        },
        {
          "indexed": true,
          "internalType": "address",
          "name": "newOwner",
          "type": "address"
        }
      ],
      "name": "OwnershipTransferred",
      "type": "event"
    },
    {
      "anonymous": false,
      "inputs": [
        {
          "indexed": true,
          "internalType": "address",
          "name": "from",
          "type": "address"
        },
        {
          "indexed": true,
          "internalType": "address",
          "name": "to",
          "type": "address"
        },
        {
          "indexed": true,
          "internalType": "uint256",
          "name": "tokenId",
          "type": "uint256"
        }
      ],
      "name": "Transfer",
      "type": "event"
    },
    {
      "inputs": [
        {
          "internalType": "address",
          "name": "to",
          "type": "address"
        },
        {
          "internalType": "uint256",
          "name": "tokenId",
          "type": "uint256"
        }
      ],
      "name": "approve",
      "outputs": [],
      "stateMutability": "nonpayable",
      "type": "function"
    },
    {
      "inputs": [
        {
          "internalType": "address",
          "name": "",
          "type": "address"
        }
      ],
      "name": "authorized",
      "outputs": [
        {
          "internalType": "bool",
          "name": "",
          "type": "bool"
        }
      ],
      "stateMutability": "view",
      "type": "function"
    },
    {
      "inputs": [
        {
          "internalType": "address",
          "name": "owner",
          "type": "address"
        }
      ],
      "name": "balanceOf",
      "outputs": [
        {
          "internalType": "uint256",
          "name": "",
          "type": "uint256"
        }
      ],
      "stateMutability": "view",
      "type": "function"
    },
    {
      "inputs": [
        {
          "internalType": "address",
          "name": "userAddress",
          "type": "address"
        },
        {
          "internalType": "bytes",
          "name": "functionSignature",
          "type": "bytes"
        },
        {
          "internalType": "bytes32",
          "name": "sigR",
          "type": "bytes32"
        },
        {
          "internalType": "bytes32",
          "name": "sigS",
          "type": "bytes32"
        },
        {
          "internalType": "uint8",
          "name": "sigV",
          "type": "uint8"
        }
      ],
      "name": "executeMetaTransaction",
      "outputs": [
        {
          "internalType": "bytes",
          "name": "",
          "type": "bytes"
        }
      ],
      "stateMutability": "payable",
      "type": "function"
    },
    {
      "inputs": [
        {
          "internalType": "uint256",
          "name": "tokenId",
          "type": "uint256"
        }
      ],
      "name": "getApproved",
      "outputs": [
        {
          "internalType": "address",
          "name": "",
          "type": "address"
        }
      ],
      "stateMutability": "view",
      "type": "function"
    },
    {
      "inputs": [
        {
          "internalType": "address",
          "name": "user",
          "type": "address"
        }
      ],
      "name": "getNonce",
      "outputs": [
        {
          "internalType": "uint256",
          "name": "nonce",
          "type": "uint256"
        }
      ],
      "stateMutability": "view",
      "type": "function"
    },
    {
      "inputs": [
        {
          "internalType": "address",
          "name": "owner",
          "type": "address"
        },
        {
          "internalType": "address",
          "name": "operator",
          "type": "address"
        }
      ],
      "name": "isApprovedForAll",
      "outputs": [
        {
          "internalType": "bool",
          "name": "",
          "type": "bool"
        }
      ],
      "stateMutability": "view",
      "type": "function"
    },
    {
      "inputs": [],
      "name": "name",
      "outputs": [
        {
          "internalType": "string",
          "name": "",
          "type": "string"
        }
      ],
      "stateMutability": "view",
      "type": "function"
    },
    {
      "inputs": [],
      "name": "owner",
      "outputs": [
        {
          "internalType": "address",
          "name": "",
          "type": "address"
        }
      ],
      "stateMutability": "view",
      "type": "function"
    },
    {
      "inputs": [
        {
          "internalType": "uint256",
          "name": "tokenId",
          "type": "uint256"
        }
      ],
      "name": "ownerOf",
      "outputs": [
        {
          "internalType": "address",
          "name": "",
          "type": "address"
        }
      ],
      "stateMutability": "view",
      "type": "function"
    },
    {
      "inputs": [],
      "name": "renounceOwnership",
      "outputs": [],
      "stateMutability": "nonpayable",
      "type": "function"
    },
    {
      "inputs": [
        {
          "internalType": "address",
          "name": "from",
          "type": "address"
        },
        {
          "internalType": "address",
          "name": "to",
          "type": "address"
        },
        {
          "internalType": "uint256",
          "name": "tokenId",
          "type": "uint256"
        }
      ],
      "name": "safeTransferFrom",
      "outputs": [],
      "stateMutability": "nonpayable",
      "type": "function"
    },
    {
      "inputs": [
        {
          "internalType": "address",
          "name": "from",
          "type": "address"
        },
        {
          "internalType": "address",
          "name": "to",
          "type": "address"
        },
        {
          "internalType": "uint256",
          "name": "tokenId",
          "type": "uint256"
        },
        {
          "internalType": "bytes",
          "name": "_data",
          "type": "bytes"
        }
      ],
      "name": "safeTransferFrom",
      "outputs": [],
      "stateMutability": "nonpayable",
      "type": "function"
    },
    {
      "inputs": [
        {
          "internalType": "address",
          "name": "operator",
          "type": "address"
        },
        {
          "internalType": "bool",
          "name": "approved",
          "type": "bool"
        }
      ],
      "name": "setApprovalForAll",
      "outputs": [],
      "stateMutability": "nonpayable",
      "type": "function"
    },
    {
      "inputs": [
        {
          "internalType": "bytes4",
          "name": "interfaceId",
          "type": "bytes4"
        }
      ],
      "name": "supportsInterface",
      "outputs": [
        {
          "internalType": "bool",
          "name": "",
          "type": "bool"
        }
      ],
      "stateMutability": "view",
      "type": "function"
    },
    {
      "inputs": [],
      "name": "symbol",
      "outputs": [
        {
          "internalType": "string",
          "name": "",
          "type": "string"
        }
      ],
      "stateMutability": "view",
      "type": "function"
    },
    {
      "inputs": [],
      "name": "tokenId",
      "outputs": [
        {
          "internalType": "uint256",
          "name": "",
          "type": "uint256"
        }
      ],
      "stateMutability": "view",
      "type": "function"
    },
    {
      "inputs": [
        {
          "internalType": "uint256",
          "name": "tokenId",
          "type": "uint256"
        }
      ],
      "name": "tokenURI",
      "outputs": [
        {
          "internalType": "string",
          "name": "",
          "type": "string"
        }
      ],
      "stateMutability": "view",
      "type": "function"
    },
    {
      "inputs": [
        {
          "internalType": "address",
          "name": "from",
          "type": "address"
        },
        {
          "internalType": "address",
          "name": "to",
          "type": "address"
        },
        {
          "internalType": "uint256",
          "name": "tokenId",
          "type": "uint256"
        }
      ],
      "name": "transferFrom",
      "outputs": [],
      "stateMutability": "nonpayable",
      "type": "function"
    },
    {
      "inputs": [
        {
          "internalType": "address",
          "name": "newOwner",
          "type": "address"
        }
      ],
      "name": "transferOwnership",
      "outputs": [],
      "stateMutability": "nonpayable",
      "type": "function"
    },
    {
      "inputs": [
        {
          "internalType": "string",
          "name": "tokenURI",
          "type": "string"
        }
      ],
      "name": "createCollectible",
      "outputs": [
        {
          "internalType": "uint256",
          "name": "",
          "type": "uint256"
        }
      ],
      "stateMutability": "nonpayable",
      "type": "function"
    },
    {
      "inputs": [
        {
          "internalType": "address",
          "name": "auth",
          "type": "address"
        }
      ],
      "name": "addAuthorized",
      "outputs": [],
      "stateMutability": "nonpayable",
      "type": "function"
    },
    {
      "inputs": [
        {
          "internalType": "address",
          "name": "auth",
          "type": "address"
        }
      ],
      "name": "clearAuthorized",
      "outputs": [],
      "stateMutability": "nonpayable",
      "type": "function"
    },
    {
      "inputs": [
        {
          "internalType": "address",
          "name": "auth",
          "type": "address"
        }
      ],
      "name": "checkAuthorized",
      "outputs": [
        {
          "internalType": "bool",
          "name": "",
          "type": "bool"
        }
      ],
      "stateMutability": "view",
      "type": "function"
    }
  ],
  "bytecode": "0x60806040526000600a553480156200001657600080fd5b506040518060400160405280600f81526020016e6d6f7270686575736c6162732e696f60881b815250604051806040016040528060018152602001603160f81b81525081816040518060400160405280600d81526020016c09adee4e0d0caeae65a9a92a8f609b1b8152506040518060400160405280600581526020016409a9a92a8f60db1b8152506000620000b1620001a760201b60201c565b600080546001600160a01b0319166001600160a01b0383169081178255604051929350917f8be0079c531659141344cd1fd0a4f28419497f9722a3daafe3b4186f6b6457e0908290a350815162000110906001906020850190620001af565b50805162000126906002906020840190620001af565b5050506040518060800160405280604f8152602001620025d1604f913980519060200120828051906020012082805190602001206200016a620001ab60201b60201c565b306040516020016200018195949392919062000255565b6040516020818303038152906040528051906020012060088190555050505050620002be565b3390565b4690565b828054620001bd9062000281565b90600052602060002090601f016020900481019282620001e157600085556200022c565b82601f10620001fc57805160ff19168380011785556200022c565b828001600101855582156200022c579182015b828111156200022c5782518255916020019190600101906200020f565b506200023a9291506200023e565b5090565b5b808211156200023a57600081556001016200023f565b9485526020850193909352604084019190915260608301526001600160a01b0316608082015260a00190565b6002810460018216806200029657607f821691505b60208210811415620002b857634e487b7160e01b600052602260045260246000fd5b50919050565b61230380620002ce6000396000f3fe60806040526004361061014b5760003560e01c806370a08231116100b6578063b91816111161006f578063b91816111461038b578063c87b56dd146103ab578063cf1c316a146103cb578063e3055f8e146103eb578063e985e9c51461040b578063f2fde38b1461042b5761014b565b806370a08231146102ec578063715018a61461030c5780638da5cb5b1461032157806395d89b4114610336578063a22cb4651461034b578063b88d4fde1461036b5761014b565b806317d70f7c1161010857806317d70f7c1461022a57806323b872dd1461024c5780632d0335ab1461026c57806331f1f3c31461028c57806342842e0e146102ac5780636352211e146102cc5761014b565b806301ffc9a71461015057806303bea2d31461018657806306fdde03146101a8578063081812fc146101ca578063095ea7b3146101f75780630c53c51c14610217575b600080fd5b34801561015c57600080fd5b5061017061016b3660046118cc565b61044b565b60405161017d9190611ab1565b60405180910390f35b34801561019257600080fd5b506101a66101a1366004611703565b610493565b005b3480156101b457600080fd5b506101bd6104fc565b60405161017d9190611afe565b3480156101d657600080fd5b506101ea6101e536600461194a565b61058e565b60405161017d9190611a2b565b34801561020357600080fd5b506101a66102123660046118a3565b6105d1565b6101bd61022536600461182a565b610669565b34801561023657600080fd5b5061023f610820565b60405161017d919061214d565b34801561025857600080fd5b506101a661026736600461174f565b610826565b34801561027857600080fd5b5061023f610287366004611703565b61085e565b34801561029857600080fd5b5061023f6102a7366004611904565b610879565b3480156102b857600080fd5b506101a66102c736600461174f565b610904565b3480156102d857600080fd5b506101ea6102e736600461194a565b61091f565b3480156102f857600080fd5b5061023f610307366004611703565b610954565b34801561031857600080fd5b506101a6610998565b34801561032d57600080fd5b506101ea610a21565b34801561034257600080fd5b506101bd610a30565b34801561035757600080fd5b506101a66103663660046117f0565b610a3f565b34801561037757600080fd5b506101a661038636600461178a565b610b0d565b34801561039757600080fd5b506101706103a6366004611703565b610b4c565b3480156103b757600080fd5b506101bd6103c636600461194a565b610b61565b3480156103d757600080fd5b506101a66103e6366004611703565b610c82565b3480156103f757600080fd5b50610170610406366004611703565b610ce5565b34801561041757600080fd5b5061017061042636600461171d565b610d03565b34801561043757600080fd5b506101a6610446366004611703565b610d31565b60006001600160e01b031982166380ac58cd60e01b148061047c57506001600160e01b03198216635b5e139f60e01b145b8061048b575061048b82610df1565b90505b919050565b61049b610e0a565b6001600160a01b03166104ac610a21565b6001600160a01b0316146104db5760405162461bcd60e51b81526004016104d290611f76565b60405180910390fd5b6001600160a01b03166000908152600b60205260409020805460ff19169055565b60606001805461050b906121c5565b80601f0160208091040260200160405190810160405280929190818152602001828054610537906121c5565b80156105845780601f1061055957610100808354040283529160200191610584565b820191906000526020600020905b81548152906001019060200180831161056757829003601f168201915b5050505050905090565b600061059982610e0e565b6105b55760405162461bcd60e51b81526004016104d290611f2a565b506000908152600560205260409020546001600160a01b031690565b60006105dc8261091f565b9050806001600160a01b0316836001600160a01b031614156106105760405162461bcd60e51b81526004016104d290612084565b806001600160a01b0316610622610e0a565b6001600160a01b0316148061063e575061063e81610426610e0a565b61065a5760405162461bcd60e51b81526004016104d290611d66565b6106648383610e2b565b505050565b6060600061067686610e99565b90506000356001600160e01b031990811690821614156106a85760405162461bcd60e51b81526004016104d290611c17565b604080516060810182526001600160a01b038916600081815260096020908152908490205483528201529081018790526106e58882888888610eb5565b6107015760405162461bcd60e51b81526004016104d290611ff4565b6001600160a01b038816600090815260096020526040902054610725906001610f61565b6001600160a01b038916600090815260096020908152604080832093909355915190918291309161075a918c918e91016119aa565b60408051601f19818403018152908290526107749161198e565b6000604051808303816000865af19150503d80600081146107b1576040519150601f19603f3d011682016040523d82523d6000602084013e6107b6565b606091505b5091509150816107d85760405162461bcd60e51b81526004016104d290611ba9565b7f5845892132946850460bff5a0083f71031bc5bf9aadcd40f1de79423eac9b10b8a338b60405161080b93929190611a3f565b60405180910390a19998505050505050505050565b600a5481565b610837610831610e0a565b82610f74565b6108535760405162461bcd60e51b81526004016104d2906120c5565b610664838383610ff1565b6001600160a01b031660009081526009602052604090205490565b6000610883610a21565b6001600160a01b0316336001600160a01b031614806108b65750336000908152600b602052604090205460ff1615156001145b6108d25760405162461bcd60e51b81526004016104d290612116565b600a546108e0906001612156565b600a8190556108f090339061111e565b6108fc600a54836111fd565b5050600a5490565b61066483838360405180602001604052806000815250610b0d565b6000818152600360205260408120546001600160a01b03168061048b5760405162461bcd60e51b81526004016104d290611e0d565b60006001600160a01b03821661097c5760405162461bcd60e51b81526004016104d290611dc3565b506001600160a01b031660009081526004602052604090205490565b6109a0610e0a565b6001600160a01b03166109b1610a21565b6001600160a01b0316146109d75760405162461bcd60e51b81526004016104d290611f76565b600080546040516001600160a01b03909116907f8be0079c531659141344cd1fd0a4f28419497f9722a3daafe3b4186f6b6457e0908390a3600080546001600160a01b0319169055565b6000546001600160a01b031690565b60606002805461050b906121c5565b610a47610e0a565b6001600160a01b0316826001600160a01b03161415610a785760405162461bcd60e51b81526004016104d290611cb8565b8060066000610a85610e0a565b6001600160a01b03908116825260208083019390935260409182016000908120918716808252919093529120805460ff191692151592909217909155610ac9610e0a565b6001600160a01b03167f17307eab39ab6107e8899845ad3d59bd9653f200f220920489ca2b5937696c3183604051610b019190611ab1565b60405180910390a35050565b610b1e610b18610e0a565b83610f74565b610b3a5760405162461bcd60e51b81526004016104d2906120c5565b610b4684848484611241565b50505050565b600b6020526000908152604090205460ff1681565b6060610b6c82610e0e565b610b885760405162461bcd60e51b81526004016104d290611ed9565b60008281526007602052604081208054610ba1906121c5565b80601f0160208091040260200160405190810160405280929190818152602001828054610bcd906121c5565b8015610c1a5780601f10610bef57610100808354040283529160200191610c1a565b820191906000526020600020905b815481529060010190602001808311610bfd57829003601f168201915b505050505090506000610c2b611274565b9050805160001415610c3f5750905061048e565b815115610c71578082604051602001610c599291906119e1565b6040516020818303038152906040529250505061048e565b610c7a84611286565b949350505050565b610c8a610e0a565b6001600160a01b0316610c9b610a21565b6001600160a01b031614610cc15760405162461bcd60e51b81526004016104d290611f76565b6001600160a01b03166000908152600b60205260409020805460ff19166001179055565b6001600160a01b03166000908152600b602052604090205460ff1690565b6001600160a01b03918216600090815260066020908152604080832093909416825291909152205460ff1690565b610d39610e0a565b6001600160a01b0316610d4a610a21565b6001600160a01b031614610d705760405162461bcd60e51b81526004016104d290611f76565b6001600160a01b038116610d965760405162461bcd60e51b81526004016104d290611b63565b600080546040516001600160a01b03808516939216917f8be0079c531659141344cd1fd0a4f28419497f9722a3daafe3b4186f6b6457e091a3600080546001600160a01b0319166001600160a01b0392909216919091179055565b6001600160e01b031981166301ffc9a760e01b14919050565b3390565b6000908152600360205260409020546001600160a01b0316151590565b600081815260056020526040902080546001600160a01b0319166001600160a01b0384169081179091558190610e608261091f565b6001600160a01b03167f8c5be1e5ebec7d5bd14f71427d1e84f3dd0314c0f7b2291e5b200ac8c7c3b92560405160405180910390a45050565b6000815160001415610ead5750600061048e565b506020015190565b6000806001610ecb610ec688611308565b611366565b84878760405160008152602001604052604051610eeb9493929190611ae0565b6020604051602081039080840390855afa158015610f0d573d6000803e3d6000fd5b5050604051601f1901519150506001600160a01b038116610f405760405162461bcd60e51b81526004016104d290611cef565b866001600160a01b0316816001600160a01b03161491505095945050505050565b6000610f6d8284612156565b9392505050565b6000610f7f82610e0e565b610f9b5760405162461bcd60e51b81526004016104d290611d1a565b6000610fa68361091f565b9050806001600160a01b0316846001600160a01b03161480610fe15750836001600160a01b0316610fd68461058e565b6001600160a01b0316145b80610c7a5750610c7a8185610d03565b826001600160a01b03166110048261091f565b6001600160a01b03161461102a5760405162461bcd60e51b81526004016104d290611fab565b6001600160a01b0382166110505760405162461bcd60e51b81526004016104d290611c74565b61105b838383610664565b611066600082610e2b565b6001600160a01b038316600090815260046020526040812080546001929061108f908490612182565b90915550506001600160a01b03821660009081526004602052604081208054600192906110bd908490612156565b909155505060008181526003602052604080822080546001600160a01b0319166001600160a01b0386811691821790925591518493918716917fddf252ad1be2c89b69c2b068fc378daa952ba7f163c4a11628f55a4df523b3ef91a4505050565b6001600160a01b0382166111445760405162461bcd60e51b81526004016104d290611ea4565b61114d81610e0e565b1561116a5760405162461bcd60e51b81526004016104d290611be0565b61117660008383610664565b6001600160a01b038216600090815260046020526040812080546001929061119f908490612156565b909155505060008181526003602052604080822080546001600160a01b0319166001600160a01b03861690811790915590518392907fddf252ad1be2c89b69c2b068fc378daa952ba7f163c4a11628f55a4df523b3ef908290a45050565b61120682610e0e565b6112225760405162461bcd60e51b81526004016104d290611e56565b60008281526007602090815260409091208251610664928401906115c4565b61124c848484610ff1565b61125884848484611382565b610b465760405162461bcd60e51b81526004016104d290611b11565b60408051602081019091526000815290565b606061129182610e0e565b6112ad5760405162461bcd60e51b81526004016104d290612035565b60006112b7611274565b905060008151116112d75760405180602001604052806000815250610f6d565b806112e18461149d565b6040516020016112f29291906119e1565b6040516020818303038152906040529392505050565b600060405180608001604052806043815260200161228b60439139805160209182012083518483015160408087015180519086012090516113499501611abc565b604051602081830303815290604052805190602001209050919050565b60006113706115b8565b82604051602001611349929190611a10565b6000611396846001600160a01b03166115be565b1561149257836001600160a01b031663150b7a026113b2610e0a565b8786866040518563ffffffff1660e01b81526004016113d49493929190611a74565b602060405180830381600087803b1580156113ee57600080fd5b505af192505050801561141e575060408051601f3d908101601f1916820190925261141b918101906118e8565b60015b611478573d80801561144c576040519150601f19603f3d011682016040523d82523d6000602084013e611451565b606091505b5080516114705760405162461bcd60e51b81526004016104d290611b11565b805181602001fd5b6001600160e01b031916630a85bd0160e11b149050610c7a565b506001949350505050565b6060816114c257506040805180820190915260018152600360fc1b602082015261048e565b8160005b81156114ec57806114d681612200565b91506114e59050600a8361216e565b91506114c6565b60008167ffffffffffffffff81111561151557634e487b7160e01b600052604160045260246000fd5b6040519080825280601f01601f19166020018201604052801561153f576020820181803683370190505b5090505b8415610c7a57611554600183612182565b9150611561600a8661221b565b61156c906030612156565b60f81b81838151811061158f57634e487b7160e01b600052603260045260246000fd5b60200101906001600160f81b031916908160001a9053506115b1600a8661216e565b9450611543565b60085490565b3b151590565b8280546115d0906121c5565b90600052602060002090601f0160209004810192826115f25760008555611638565b82601f1061160b57805160ff1916838001178555611638565b82800160010185558215611638579182015b8281111561163857825182559160200191906001019061161d565b50611644929150611648565b5090565b5b808211156116445760008155600101611649565b600067ffffffffffffffff808411156116785761167861225b565b604051601f8501601f19168101602001828111828210171561169c5761169c61225b565b6040528481529150818385018610156116b457600080fd5b8484602083013760006020868301015250509392505050565b80356001600160a01b038116811461048e57600080fd5b600082601f8301126116f4578081fd5b610f6d8383356020850161165d565b600060208284031215611714578081fd5b610f6d826116cd565b6000806040838503121561172f578081fd5b611738836116cd565b9150611746602084016116cd565b90509250929050565b600080600060608486031215611763578081fd5b61176c846116cd565b925061177a602085016116cd565b9150604084013590509250925092565b6000806000806080858703121561179f578081fd5b6117a8856116cd565b93506117b6602086016116cd565b925060408501359150606085013567ffffffffffffffff8111156117d8578182fd5b6117e4878288016116e4565b91505092959194509250565b60008060408385031215611802578182fd5b61180b836116cd565b91506020830135801515811461181f578182fd5b809150509250929050565b600080600080600060a08688031215611841578081fd5b61184a866116cd565b9450602086013567ffffffffffffffff811115611865578182fd5b611871888289016116e4565b9450506040860135925060608601359150608086013560ff81168114611895578182fd5b809150509295509295909350565b600080604083850312156118b5578182fd5b6118be836116cd565b946020939093013593505050565b6000602082840312156118dd578081fd5b8135610f6d81612271565b6000602082840312156118f9578081fd5b8151610f6d81612271565b600060208284031215611915578081fd5b813567ffffffffffffffff81111561192b578182fd5b8201601f8101841361193b578182fd5b610c7a8482356020840161165d565b60006020828403121561195b578081fd5b5035919050565b6000815180845261197a816020860160208601612199565b601f01601f19169290920160200192915050565b600082516119a0818460208701612199565b9190910192915050565b600083516119bc818460208801612199565b60609390931b6bffffffffffffffffffffffff19169190920190815260140192915050565b600083516119f3818460208801612199565b835190830190611a07818360208801612199565b01949350505050565b61190160f01b81526002810192909252602282015260420190565b6001600160a01b0391909116815260200190565b6001600160a01b03848116825283166020820152606060408201819052600090611a6b90830184611962565b95945050505050565b6001600160a01b0385811682528416602082015260408101839052608060608201819052600090611aa790830184611962565b9695505050505050565b901515815260200190565b93845260208401929092526001600160a01b03166040830152606082015260800190565b93845260ff9290921660208401526040830152606082015260800190565b600060208252610f6d6020830184611962565b60208082526032908201527f4552433732313a207472616e7366657220746f206e6f6e20455243373231526560408201527131b2b4bb32b91034b6b83632b6b2b73a32b960711b606082015260800190565b60208082526026908201527f4f776e61626c653a206e6577206f776e657220697320746865207a65726f206160408201526564647265737360d01b606082015260800190565b6020808252601c908201527f46756e6374696f6e2063616c6c206e6f74207375636365737366756c00000000604082015260600190565b6020808252601c908201527f4552433732313a20746f6b656e20616c7265616479206d696e74656400000000604082015260600190565b6020808252603d908201527f66756e6374696f6e5369676e61747572652063616e206e6f74206265206f662060408201527f657865637574654d6574615472616e73616374696f6e206d6574686f64000000606082015260800190565b60208082526024908201527f4552433732313a207472616e7366657220746f20746865207a65726f206164646040820152637265737360e01b606082015260800190565b60208082526019908201527f4552433732313a20617070726f766520746f2063616c6c657200000000000000604082015260600190565b602080825260119082015270496e76616c6964207369676e617475726560781b604082015260600190565b6020808252602c908201527f4552433732313a206f70657261746f7220717565727920666f72206e6f6e657860408201526b34b9ba32b73a103a37b5b2b760a11b606082015260800190565b60208082526038908201527f4552433732313a20617070726f76652063616c6c6572206973206e6f74206f7760408201527f6e6572206e6f7220617070726f76656420666f7220616c6c0000000000000000606082015260800190565b6020808252602a908201527f4552433732313a2062616c616e636520717565727920666f7220746865207a65604082015269726f206164647265737360b01b606082015260800190565b60208082526029908201527f4552433732313a206f776e657220717565727920666f72206e6f6e657869737460408201526832b73a103a37b5b2b760b91b606082015260800190565b6020808252602e908201527f45524337323155524953746f726167653a2055524920736574206f66206e6f6e60408201526d32bc34b9ba32b73a103a37b5b2b760911b606082015260800190565b6020808252818101527f4552433732313a206d696e7420746f20746865207a65726f2061646472657373604082015260600190565b60208082526031908201527f45524337323155524953746f726167653a2055524920717565727920666f72206040820152703737b732bc34b9ba32b73a103a37b5b2b760791b606082015260800190565b6020808252602c908201527f4552433732313a20617070726f76656420717565727920666f72206e6f6e657860408201526b34b9ba32b73a103a37b5b2b760a11b606082015260800190565b6020808252818101527f4f776e61626c653a2063616c6c6572206973206e6f7420746865206f776e6572604082015260600190565b60208082526029908201527f4552433732313a207472616e73666572206f6620746f6b656e2074686174206960408201526839903737ba1037bbb760b91b606082015260800190565b60208082526021908201527f5369676e657220616e64207369676e617475726520646f206e6f74206d6174636040820152600d60fb1b606082015260800190565b6020808252602f908201527f4552433732314d657461646174613a2055524920717565727920666f72206e6f60408201526e3732bc34b9ba32b73a103a37b5b2b760891b606082015260800190565b60208082526021908201527f4552433732313a20617070726f76616c20746f2063757272656e74206f776e656040820152603960f91b606082015260800190565b60208082526031908201527f4552433732313a207472616e736665722063616c6c6572206973206e6f74206f6040820152701ddb995c881b9bdc88185c1c1c9bdd9959607a1b606082015260800190565b6020808252601a908201527f437573746f6d4552433732313a20756e617574686f72697a6564000000000000604082015260600190565b90815260200190565b600082198211156121695761216961222f565b500190565b60008261217d5761217d612245565b500490565b6000828210156121945761219461222f565b500390565b60005b838110156121b457818101518382015260200161219c565b83811115610b465750506000910152565b6002810460018216806121d957607f821691505b602082108114156121fa57634e487b7160e01b600052602260045260246000fd5b50919050565b60006000198214156122145761221461222f565b5060010190565b60008261222a5761222a612245565b500690565b634e487b7160e01b600052601160045260246000fd5b634e487b7160e01b600052601260045260246000fd5b634e487b7160e01b600052604160045260246000fd5b6001600160e01b03198116811461228757600080fd5b5056fe4d6574615472616e73616374696f6e2875696e74323536206e6f6e63652c616464726573732066726f6d2c62797465732066756e6374696f6e5369676e617475726529a26469706673582212202850a15a0717d25a2beb5a75cffff114121356a1a5526f3d4a1600cbdf053ab964736f6c63430008000033454950373132446f6d61696e28737472696e67206e616d652c737472696e672076657273696f6e2c75696e743235362073616c742c6164647265737320766572696679696e67436f6e747261637429",
  "immutableReferences": {},
  "source": "// SPDX-License-Identifier: MIT\n\npragma solidity ^0.8.0;\n\nimport \"@openzeppelin/contracts/token/ERC721/extensions/ERC721URIStorage.sol\";\nimport \"@openzeppelin/contracts/access/Ownable.sol\";\nimport \"./EIP712MetaTransaction.sol\";\n\ncontract CustomERC721 is Ownable, ERC721URIStorage, EIP712MetaTransaction {\n    \n    string private constant DOMAIN_NAME = \"morpheuslabs.io\";\n    string private constant DOMAIN_VERSION = \"1\";\n\n    string private constant TOKEN_NAME = \"Morpheus-MITx\";\n    string private constant TOKEN_SYMBOL = \"MMITx\";\n    \n    uint256 public tokenId = 0;\n    \n    // Authorized list\n    mapping(address => bool) public authorized;\n    \n    constructor() ERC721(TOKEN_NAME, TOKEN_SYMBOL) EIP712MetaTransaction(DOMAIN_NAME, DOMAIN_VERSION) \n    {}\n\n    modifier isAuthorized() {\n        require(\n            msg.sender == owner() || authorized[msg.sender] == true, \n            \"CustomERC721: unauthorized\"\n        );\n        _;\n    }\n\n    function createCollectible(string memory tokenURI) public isAuthorized returns (uint256) {\n        tokenId = tokenId + 1;\n        _mint(msg.sender, tokenId);\n        _setTokenURI(tokenId, tokenURI);\n        return tokenId;\n    }\n\n    function addAuthorized(address auth) public onlyOwner {\n        authorized[auth] = true;\n    }\n\n    function clearAuthorized(address auth) public onlyOwner {\n        authorized[auth] = false;\n    }\n\n    function checkAuthorized(address auth) public view returns (bool) {\n        return authorized[auth];\n    }\n}\n",
  "sourcePath": "/home/trung/Work/reference/morphe/task/dApp/ml-NFT-tool/erc721/contracts/CustomERC721.sol",
  "compiler": {
    "name": "solc",
    "version": "0.8.0+commit.c7dfd78e.Emscripten.clang"
  },
  "schemaVersion": "3.3.4",
  "updatedAt": "2021-04-14T13:37:37.482Z",
  "devdoc": {
    "kind": "dev",
    "methods": {
      "approve(address,uint256)": {
        "details": "See {IERC721-approve}."
      },
      "balanceOf(address)": {
        "details": "See {IERC721-balanceOf}."
      },
      "getApproved(uint256)": {
        "details": "See {IERC721-getApproved}."
      },
      "isApprovedForAll(address,address)": {
        "details": "See {IERC721-isApprovedForAll}."
      },
      "name()": {
        "details": "See {IERC721Metadata-name}."
      },
      "owner()": {
        "details": "Returns the address of the current owner."
      },
      "ownerOf(uint256)": {
        "details": "See {IERC721-ownerOf}."
      },
      "renounceOwnership()": {
        "details": "Leaves the contract without owner. It will not be possible to call `onlyOwner` functions anymore. Can only be called by the current owner. NOTE: Renouncing ownership will leave the contract without an owner, thereby removing any functionality that is only available to the owner."
      },
      "safeTransferFrom(address,address,uint256)": {
        "details": "See {IERC721-safeTransferFrom}."
      },
      "safeTransferFrom(address,address,uint256,bytes)": {
        "details": "See {IERC721-safeTransferFrom}."
      },
      "setApprovalForAll(address,bool)": {
        "details": "See {IERC721-setApprovalForAll}."
      },
      "supportsInterface(bytes4)": {
        "details": "See {IERC165-supportsInterface}."
      },
      "symbol()": {
        "details": "See {IERC721Metadata-symbol}."
      },
      "tokenURI(uint256)": {
        "details": "See {IERC721Metadata-tokenURI}."
      },
      "transferFrom(address,address,uint256)": {
        "details": "See {IERC721-transferFrom}."
      },
      "transferOwnership(address)": {
        "details": "Transfers ownership of the contract to a new account (`newOwner`). Can only be called by the current owner."
      }
    },
    "version": 1
  },
  "userdoc": {
    "kind": "user",
    "methods": {},
    "version": 1
  }
}