{
  "contractName": "CustomERC721",
  "abi": [
    {
      "inputs": [
        {
          "internalType": "string",
          "name": "_name",
          "type": "string"
        },
        {
          "internalType": "string",
          "name": "_symbol",
          "type": "string"
        },
        {
          "internalType": "address",
          "name": "_to",
          "type": "address"
        },
        {
          "internalType": "string",
          "name": "_tokenURI",
          "type": "string"
        }
      ],
      "stateMutability": "nonpayable",
      "type": "constructor"
    },
    {
      "anonymous": false,
      "inputs": [
        {
          "indexed": true,
          "internalType": "address",
          "name": "owner",
          "type": "address"
        },
        {
          "indexed": true,
          "internalType": "address",
          "name": "approved",
          "type": "address"
        },
        {
          "indexed": true,
          "internalType": "uint256",
          "name": "tokenId",
          "type": "uint256"
        }
      ],
      "name": "Approval",
      "type": "event"
    },
    {
      "anonymous": false,
      "inputs": [
        {
          "indexed": true,
          "internalType": "address",
          "name": "owner",
          "type": "address"
        },
        {
          "indexed": true,
          "internalType": "address",
          "name": "operator",
          "type": "address"
        },
        {
          "indexed": false,
          "internalType": "bool",
          "name": "approved",
          "type": "bool"
        }
      ],
      "name": "ApprovalForAll",
      "type": "event"
    },
    {
      "anonymous": false,
      "inputs": [
        {
          "indexed": true,
          "internalType": "address",
          "name": "previousOwner",
          "type": "address"
        },
        {
          "indexed": true,
          "internalType": "address",
          "name": "newOwner",
          "type": "address"
        }
      ],
      "name": "OwnershipTransferred",
      "type": "event"
    },
    {
      "anonymous": false,
      "inputs": [
        {
          "indexed": true,
          "internalType": "address",
          "name": "from",
          "type": "address"
        },
        {
          "indexed": true,
          "internalType": "address",
          "name": "to",
          "type": "address"
        },
        {
          "indexed": true,
          "internalType": "uint256",
          "name": "tokenId",
          "type": "uint256"
        }
      ],
      "name": "Transfer",
      "type": "event"
    },
    {
      "inputs": [
        {
          "internalType": "address",
          "name": "to",
          "type": "address"
        },
        {
          "internalType": "uint256",
          "name": "tokenId",
          "type": "uint256"
        }
      ],
      "name": "approve",
      "outputs": [],
      "stateMutability": "nonpayable",
      "type": "function"
    },
    {
      "inputs": [
        {
          "internalType": "address",
          "name": "",
          "type": "address"
        }
      ],
      "name": "authorized",
      "outputs": [
        {
          "internalType": "bool",
          "name": "",
          "type": "bool"
        }
      ],
      "stateMutability": "view",
      "type": "function"
    },
    {
      "inputs": [
        {
          "internalType": "address",
          "name": "owner",
          "type": "address"
        }
      ],
      "name": "balanceOf",
      "outputs": [
        {
          "internalType": "uint256",
          "name": "",
          "type": "uint256"
        }
      ],
      "stateMutability": "view",
      "type": "function"
    },
    {
      "inputs": [
        {
          "internalType": "uint256",
          "name": "tokenId",
          "type": "uint256"
        }
      ],
      "name": "getApproved",
      "outputs": [
        {
          "internalType": "address",
          "name": "",
          "type": "address"
        }
      ],
      "stateMutability": "view",
      "type": "function"
    },
    {
      "inputs": [
        {
          "internalType": "address",
          "name": "owner",
          "type": "address"
        },
        {
          "internalType": "address",
          "name": "operator",
          "type": "address"
        }
      ],
      "name": "isApprovedForAll",
      "outputs": [
        {
          "internalType": "bool",
          "name": "",
          "type": "bool"
        }
      ],
      "stateMutability": "view",
      "type": "function"
    },
    {
      "inputs": [],
      "name": "name",
      "outputs": [
        {
          "internalType": "string",
          "name": "",
          "type": "string"
        }
      ],
      "stateMutability": "view",
      "type": "function"
    },
    {
      "inputs": [],
      "name": "owner",
      "outputs": [
        {
          "internalType": "address",
          "name": "",
          "type": "address"
        }
      ],
      "stateMutability": "view",
      "type": "function"
    },
    {
      "inputs": [
        {
          "internalType": "uint256",
          "name": "tokenId",
          "type": "uint256"
        }
      ],
      "name": "ownerOf",
      "outputs": [
        {
          "internalType": "address",
          "name": "",
          "type": "address"
        }
      ],
      "stateMutability": "view",
      "type": "function"
    },
    {
      "inputs": [],
      "name": "renounceOwnership",
      "outputs": [],
      "stateMutability": "nonpayable",
      "type": "function"
    },
    {
      "inputs": [
        {
          "internalType": "address",
          "name": "from",
          "type": "address"
        },
        {
          "internalType": "address",
          "name": "to",
          "type": "address"
        },
        {
          "internalType": "uint256",
          "name": "tokenId",
          "type": "uint256"
        }
      ],
      "name": "safeTransferFrom",
      "outputs": [],
      "stateMutability": "nonpayable",
      "type": "function"
    },
    {
      "inputs": [
        {
          "internalType": "address",
          "name": "from",
          "type": "address"
        },
        {
          "internalType": "address",
          "name": "to",
          "type": "address"
        },
        {
          "internalType": "uint256",
          "name": "tokenId",
          "type": "uint256"
        },
        {
          "internalType": "bytes",
          "name": "_data",
          "type": "bytes"
        }
      ],
      "name": "safeTransferFrom",
      "outputs": [],
      "stateMutability": "nonpayable",
      "type": "function"
    },
    {
      "inputs": [
        {
          "internalType": "address",
          "name": "operator",
          "type": "address"
        },
        {
          "internalType": "bool",
          "name": "approved",
          "type": "bool"
        }
      ],
      "name": "setApprovalForAll",
      "outputs": [],
      "stateMutability": "nonpayable",
      "type": "function"
    },
    {
      "inputs": [
        {
          "internalType": "bytes4",
          "name": "interfaceId",
          "type": "bytes4"
        }
      ],
      "name": "supportsInterface",
      "outputs": [
        {
          "internalType": "bool",
          "name": "",
          "type": "bool"
        }
      ],
      "stateMutability": "view",
      "type": "function"
    },
    {
      "inputs": [],
      "name": "symbol",
      "outputs": [
        {
          "internalType": "string",
          "name": "",
          "type": "string"
        }
      ],
      "stateMutability": "view",
      "type": "function"
    },
    {
      "inputs": [],
      "name": "tokenId",
      "outputs": [
        {
          "internalType": "uint256",
          "name": "",
          "type": "uint256"
        }
      ],
      "stateMutability": "view",
      "type": "function"
    },
    {
      "inputs": [
        {
          "internalType": "uint256",
          "name": "tokenId",
          "type": "uint256"
        }
      ],
      "name": "tokenURI",
      "outputs": [
        {
          "internalType": "string",
          "name": "",
          "type": "string"
        }
      ],
      "stateMutability": "view",
      "type": "function"
    },
    {
      "inputs": [
        {
          "internalType": "address",
          "name": "from",
          "type": "address"
        },
        {
          "internalType": "address",
          "name": "to",
          "type": "address"
        },
        {
          "internalType": "uint256",
          "name": "tokenId",
          "type": "uint256"
        }
      ],
      "name": "transferFrom",
      "outputs": [],
      "stateMutability": "nonpayable",
      "type": "function"
    },
    {
      "inputs": [
        {
          "internalType": "address",
          "name": "newOwner",
          "type": "address"
        }
      ],
      "name": "transferOwnership",
      "outputs": [],
      "stateMutability": "nonpayable",
      "type": "function"
    },
    {
      "inputs": [
        {
          "internalType": "string",
          "name": "tokenURI",
          "type": "string"
        }
      ],
      "name": "createCollectible",
      "outputs": [
        {
          "internalType": "uint256",
          "name": "",
          "type": "uint256"
        }
      ],
      "stateMutability": "nonpayable",
      "type": "function"
    },
    {
      "inputs": [
        {
          "internalType": "address",
          "name": "auth",
          "type": "address"
        }
      ],
      "name": "addAuthorized",
      "outputs": [],
      "stateMutability": "nonpayable",
      "type": "function"
    },
    {
      "inputs": [
        {
          "internalType": "address",
          "name": "auth",
          "type": "address"
        }
      ],
      "name": "clearAuthorized",
      "outputs": [],
      "stateMutability": "nonpayable",
      "type": "function"
    },
    {
      "inputs": [
        {
          "internalType": "address",
          "name": "auth",
          "type": "address"
        }
      ],
      "name": "checkAuthorized",
      "outputs": [
        {
          "internalType": "bool",
          "name": "",
          "type": "bool"
        }
      ],
      "stateMutability": "view",
      "type": "function"
    }
  ],
  "bytecode": "0x608060405260006008553480156200001657600080fd5b5060405162002162380380620021628339810160408190526200003991620003a2565b8383600062000047620000ec565b600080546001600160a01b0319166001600160a01b0383169081178255604051929350917f8be0079c531659141344cd1fd0a4f28419497f9722a3daafe3b4186f6b6457e0908290a3508151620000a690600190602085019062000251565b508051620000bc90600290602084019062000251565b505050620000d382600854620000f060201b60201c565b600854620000e29082620001e4565b5050505062000582565b3390565b6001600160a01b038216620001225760405162461bcd60e51b81526004016200011990620004d5565b60405180910390fd5b6200012d8162000234565b156200014d5760405162461bcd60e51b8152600401620001199062000450565b6200015b600083836200022f565b6001600160a01b0382166000908152600460205260408120805460019290620001869084906200050a565b909155505060008181526003602052604080822080546001600160a01b0319166001600160a01b03861690811790915590518392907fddf252ad1be2c89b69c2b068fc378daa952ba7f163c4a11628f55a4df523b3ef908290a45050565b620001ef8262000234565b6200020e5760405162461bcd60e51b8152600401620001199062000487565b600082815260076020908152604090912082516200022f9284019062000251565b505050565b6000908152600360205260409020546001600160a01b0316151590565b8280546200025f906200052f565b90600052602060002090601f016020900481019282620002835760008555620002ce565b82601f106200029e57805160ff1916838001178555620002ce565b82800160010185558215620002ce579182015b82811115620002ce578251825591602001919060010190620002b1565b50620002dc929150620002e0565b5090565b5b80821115620002dc5760008155600101620002e1565b600082601f83011262000308578081fd5b81516001600160401b03808211156200032557620003256200056c565b6040516020601f8401601f19168201810183811183821017156200034d576200034d6200056c565b604052838252858401810187101562000364578485fd5b8492505b8383101562000387578583018101518284018201529182019162000368565b838311156200039857848185840101525b5095945050505050565b60008060008060808587031215620003b8578384fd5b84516001600160401b0380821115620003cf578586fd5b620003dd88838901620002f7565b95506020870151915080821115620003f3578485fd5b6200040188838901620002f7565b604088015190955091506001600160a01b038216821462000420578384fd5b60608701519193508082111562000435578283fd5b506200044487828801620002f7565b91505092959194509250565b6020808252601c908201527f4552433732313a20746f6b656e20616c7265616479206d696e74656400000000604082015260600190565b6020808252602e908201527f45524337323155524953746f726167653a2055524920736574206f66206e6f6e60408201526d32bc34b9ba32b73a103a37b5b2b760911b606082015260800190565b6020808252818101527f4552433732313a206d696e7420746f20746865207a65726f2061646472657373604082015260600190565b600082198211156200052a57634e487b7160e01b81526011600452602481fd5b500190565b6002810460018216806200054457607f821691505b602082108114156200056657634e487b7160e01b600052602260045260246000fd5b50919050565b634e487b7160e01b600052604160045260246000fd5b611bd080620005926000396000f3fe608060405234801561001057600080fd5b50600436106101425760003560e01c8063715018a6116100b8578063b91816111161007c578063b91816111461027f578063c87b56dd14610292578063cf1c316a146102a5578063e3055f8e146102b8578063e985e9c5146102cb578063f2fde38b146102de57610142565b8063715018a6146102415780638da5cb5b1461024957806395d89b4114610251578063a22cb46514610259578063b88d4fde1461026c57610142565b806317d70f7c1161010a57806317d70f7c146101cd57806323b872dd146101e257806331f1f3c3146101f557806342842e0e146102085780636352211e1461021b57806370a082311461022e57610142565b806301ffc9a71461014757806303bea2d31461017057806306fdde0314610185578063081812fc1461019a578063095ea7b3146101ba575b600080fd5b61015a6101553660046113c1565b6102f1565b6040516101679190611503565b60405180910390f35b61018361017e36600461125e565b610339565b005b61018d6103a2565b604051610167919061150e565b6101ad6101a836600461143f565b610434565b60405161016791906114b2565b6101836101c8366004611398565b610477565b6101d561050f565b6040516101679190611a5d565b6101836101f03660046112aa565b610515565b6101d56102033660046113f9565b61054d565b6101836102163660046112aa565b6105d8565b6101ad61022936600461143f565b6105f3565b6101d561023c36600461125e565b610628565b61018361066c565b6101ad6106f5565b61018d610704565b61018361026736600461135e565b610713565b61018361027a3660046112e5565b6107e1565b61015a61028d36600461125e565b610820565b61018d6102a036600461143f565b610835565b6101836102b336600461125e565b610956565b61015a6102c636600461125e565b6109b9565b61015a6102d9366004611278565b6109d7565b6101836102ec36600461125e565b610a05565b60006001600160e01b031982166380ac58cd60e01b148061032257506001600160e01b03198216635b5e139f60e01b145b80610331575061033182610ac5565b90505b919050565b610341610ade565b6001600160a01b03166103526106f5565b6001600160a01b0316146103815760405162461bcd60e51b8152600401610378906118c7565b60405180910390fd5b6001600160a01b03166000908152600960205260409020805460ff19169055565b6060600180546103b190611ad5565b80601f01602080910402602001604051908101604052809291908181526020018280546103dd90611ad5565b801561042a5780601f106103ff5761010080835404028352916020019161042a565b820191906000526020600020905b81548152906001019060200180831161040d57829003601f168201915b5050505050905090565b600061043f82610ae2565b61045b5760405162461bcd60e51b81526004016103789061187b565b506000908152600560205260409020546001600160a01b031690565b6000610482826105f3565b9050806001600160a01b0316836001600160a01b031614156104b65760405162461bcd60e51b815260040161037890611994565b806001600160a01b03166104c8610ade565b6001600160a01b031614806104e457506104e4816102d9610ade565b6105005760405162461bcd60e51b8152600401610378906116b7565b61050a8383610aff565b505050565b60085481565b610526610520610ade565b82610b6d565b6105425760405162461bcd60e51b8152600401610378906119d5565b61050a838383610bea565b60006105576106f5565b6001600160a01b0316336001600160a01b0316148061058a57503360009081526009602052604090205460ff1615156001145b6105a65760405162461bcd60e51b815260040161037890611a26565b6008546105b4906001611a66565b60088190556105c4903390610d17565b6105d060085483610df6565b505060085490565b61050a838383604051806020016040528060008152506107e1565b6000818152600360205260408120546001600160a01b0316806103315760405162461bcd60e51b81526004016103789061175e565b60006001600160a01b0382166106505760405162461bcd60e51b815260040161037890611714565b506001600160a01b031660009081526004602052604090205490565b610674610ade565b6001600160a01b03166106856106f5565b6001600160a01b0316146106ab5760405162461bcd60e51b8152600401610378906118c7565b600080546040516001600160a01b03909116907f8be0079c531659141344cd1fd0a4f28419497f9722a3daafe3b4186f6b6457e0908390a3600080546001600160a01b0319169055565b6000546001600160a01b031690565b6060600280546103b190611ad5565b61071b610ade565b6001600160a01b0316826001600160a01b0316141561074c5760405162461bcd60e51b815260040161037890611634565b8060066000610759610ade565b6001600160a01b03908116825260208083019390935260409182016000908120918716808252919093529120805460ff19169215159290921790915561079d610ade565b6001600160a01b03167f17307eab39ab6107e8899845ad3d59bd9653f200f220920489ca2b5937696c31836040516107d59190611503565b60405180910390a35050565b6107f26107ec610ade565b83610b6d565b61080e5760405162461bcd60e51b8152600401610378906119d5565b61081a84848484610e3a565b50505050565b60096020526000908152604090205460ff1681565b606061084082610ae2565b61085c5760405162461bcd60e51b81526004016103789061182a565b6000828152600760205260408120805461087590611ad5565b80601f01602080910402602001604051908101604052809291908181526020018280546108a190611ad5565b80156108ee5780601f106108c3576101008083540402835291602001916108ee565b820191906000526020600020905b8154815290600101906020018083116108d157829003601f168201915b5050505050905060006108ff610e6d565b905080516000141561091357509050610334565b81511561094557808260405160200161092d929190611483565b60405160208183030381529060405292505050610334565b61094e84610e7f565b949350505050565b61095e610ade565b6001600160a01b031661096f6106f5565b6001600160a01b0316146109955760405162461bcd60e51b8152600401610378906118c7565b6001600160a01b03166000908152600960205260409020805460ff19166001179055565b6001600160a01b031660009081526009602052604090205460ff1690565b6001600160a01b03918216600090815260066020908152604080832093909416825291909152205460ff1690565b610a0d610ade565b6001600160a01b0316610a1e6106f5565b6001600160a01b031614610a445760405162461bcd60e51b8152600401610378906118c7565b6001600160a01b038116610a6a5760405162461bcd60e51b815260040161037890611573565b600080546040516001600160a01b03808516939216917f8be0079c531659141344cd1fd0a4f28419497f9722a3daafe3b4186f6b6457e091a3600080546001600160a01b0319166001600160a01b0392909216919091179055565b6001600160e01b031981166301ffc9a760e01b14919050565b3390565b6000908152600360205260409020546001600160a01b0316151590565b600081815260056020526040902080546001600160a01b0319166001600160a01b0384169081179091558190610b34826105f3565b6001600160a01b03167f8c5be1e5ebec7d5bd14f71427d1e84f3dd0314c0f7b2291e5b200ac8c7c3b92560405160405180910390a45050565b6000610b7882610ae2565b610b945760405162461bcd60e51b81526004016103789061166b565b6000610b9f836105f3565b9050806001600160a01b0316846001600160a01b03161480610bda5750836001600160a01b0316610bcf84610434565b6001600160a01b0316145b8061094e575061094e81856109d7565b826001600160a01b0316610bfd826105f3565b6001600160a01b031614610c235760405162461bcd60e51b8152600401610378906118fc565b6001600160a01b038216610c495760405162461bcd60e51b8152600401610378906115f0565b610c5483838361050a565b610c5f600082610aff565b6001600160a01b0383166000908152600460205260408120805460019290610c88908490611a92565b90915550506001600160a01b0382166000908152600460205260408120805460019290610cb6908490611a66565b909155505060008181526003602052604080822080546001600160a01b0319166001600160a01b0386811691821790925591518493918716917fddf252ad1be2c89b69c2b068fc378daa952ba7f163c4a11628f55a4df523b3ef91a4505050565b6001600160a01b038216610d3d5760405162461bcd60e51b8152600401610378906117f5565b610d4681610ae2565b15610d635760405162461bcd60e51b8152600401610378906115b9565b610d6f6000838361050a565b6001600160a01b0382166000908152600460205260408120805460019290610d98908490611a66565b909155505060008181526003602052604080822080546001600160a01b0319166001600160a01b03861690811790915590518392907fddf252ad1be2c89b69c2b068fc378daa952ba7f163c4a11628f55a4df523b3ef908290a45050565b610dff82610ae2565b610e1b5760405162461bcd60e51b8152600401610378906117a7565b6000828152600760209081526040909120825161050a9284019061113e565b610e45848484610bea565b610e5184848484610f02565b61081a5760405162461bcd60e51b815260040161037890611521565b60408051602081019091526000815290565b6060610e8a82610ae2565b610ea65760405162461bcd60e51b815260040161037890611945565b6000610eb0610e6d565b90506000815111610ed05760405180602001604052806000815250610efb565b80610eda8461101d565b604051602001610eeb929190611483565b6040516020818303038152906040525b9392505050565b6000610f16846001600160a01b0316611138565b1561101257836001600160a01b031663150b7a02610f32610ade565b8786866040518563ffffffff1660e01b8152600401610f5494939291906114c6565b602060405180830381600087803b158015610f6e57600080fd5b505af1925050508015610f9e575060408051601f3d908101601f19168201909252610f9b918101906113dd565b60015b610ff8573d808015610fcc576040519150601f19603f3d011682016040523d82523d6000602084013e610fd1565b606091505b508051610ff05760405162461bcd60e51b815260040161037890611521565b805181602001fd5b6001600160e01b031916630a85bd0160e11b14905061094e565b506001949350505050565b60608161104257506040805180820190915260018152600360fc1b6020820152610334565b8160005b811561106c578061105681611b10565b91506110659050600a83611a7e565b9150611046565b60008167ffffffffffffffff81111561109557634e487b7160e01b600052604160045260246000fd5b6040519080825280601f01601f1916602001820160405280156110bf576020820181803683370190505b5090505b841561094e576110d4600183611a92565b91506110e1600a86611b2b565b6110ec906030611a66565b60f81b81838151811061110f57634e487b7160e01b600052603260045260246000fd5b60200101906001600160f81b031916908160001a905350611131600a86611a7e565b94506110c3565b3b151590565b82805461114a90611ad5565b90600052602060002090601f01602090048101928261116c57600085556111b2565b82601f1061118557805160ff19168380011785556111b2565b828001600101855582156111b2579182015b828111156111b2578251825591602001919060010190611197565b506111be9291506111c2565b5090565b5b808211156111be57600081556001016111c3565b600067ffffffffffffffff808411156111f2576111f2611b6b565b604051601f8501601f19168101602001828111828210171561121657611216611b6b565b60405284815291508183850186101561122e57600080fd5b8484602083013760006020868301015250509392505050565b80356001600160a01b038116811461033457600080fd5b60006020828403121561126f578081fd5b610efb82611247565b6000806040838503121561128a578081fd5b61129383611247565b91506112a160208401611247565b90509250929050565b6000806000606084860312156112be578081fd5b6112c784611247565b92506112d560208501611247565b9150604084013590509250925092565b600080600080608085870312156112fa578081fd5b61130385611247565b935061131160208601611247565b925060408501359150606085013567ffffffffffffffff811115611333578182fd5b8501601f81018713611343578182fd5b611352878235602084016111d7565b91505092959194509250565b60008060408385031215611370578182fd5b61137983611247565b91506020830135801515811461138d578182fd5b809150509250929050565b600080604083850312156113aa578182fd5b6113b383611247565b946020939093013593505050565b6000602082840312156113d2578081fd5b8135610efb81611b81565b6000602082840312156113ee578081fd5b8151610efb81611b81565b60006020828403121561140a578081fd5b813567ffffffffffffffff811115611420578182fd5b8201601f81018413611430578182fd5b61094e848235602084016111d7565b600060208284031215611450578081fd5b5035919050565b6000815180845261146f816020860160208601611aa9565b601f01601f19169290920160200192915050565b60008351611495818460208801611aa9565b8351908301906114a9818360208801611aa9565b01949350505050565b6001600160a01b0391909116815260200190565b6001600160a01b03858116825284166020820152604081018390526080606082018190526000906114f990830184611457565b9695505050505050565b901515815260200190565b600060208252610efb6020830184611457565b60208082526032908201527f4552433732313a207472616e7366657220746f206e6f6e20455243373231526560408201527131b2b4bb32b91034b6b83632b6b2b73a32b960711b606082015260800190565b60208082526026908201527f4f776e61626c653a206e6577206f776e657220697320746865207a65726f206160408201526564647265737360d01b606082015260800190565b6020808252601c908201527f4552433732313a20746f6b656e20616c7265616479206d696e74656400000000604082015260600190565b60208082526024908201527f4552433732313a207472616e7366657220746f20746865207a65726f206164646040820152637265737360e01b606082015260800190565b60208082526019908201527f4552433732313a20617070726f766520746f2063616c6c657200000000000000604082015260600190565b6020808252602c908201527f4552433732313a206f70657261746f7220717565727920666f72206e6f6e657860408201526b34b9ba32b73a103a37b5b2b760a11b606082015260800190565b60208082526038908201527f4552433732313a20617070726f76652063616c6c6572206973206e6f74206f7760408201527f6e6572206e6f7220617070726f76656420666f7220616c6c0000000000000000606082015260800190565b6020808252602a908201527f4552433732313a2062616c616e636520717565727920666f7220746865207a65604082015269726f206164647265737360b01b606082015260800190565b60208082526029908201527f4552433732313a206f776e657220717565727920666f72206e6f6e657869737460408201526832b73a103a37b5b2b760b91b606082015260800190565b6020808252602e908201527f45524337323155524953746f726167653a2055524920736574206f66206e6f6e60408201526d32bc34b9ba32b73a103a37b5b2b760911b606082015260800190565b6020808252818101527f4552433732313a206d696e7420746f20746865207a65726f2061646472657373604082015260600190565b60208082526031908201527f45524337323155524953746f726167653a2055524920717565727920666f72206040820152703737b732bc34b9ba32b73a103a37b5b2b760791b606082015260800190565b6020808252602c908201527f4552433732313a20617070726f76656420717565727920666f72206e6f6e657860408201526b34b9ba32b73a103a37b5b2b760a11b606082015260800190565b6020808252818101527f4f776e61626c653a2063616c6c6572206973206e6f7420746865206f776e6572604082015260600190565b60208082526029908201527f4552433732313a207472616e73666572206f6620746f6b656e2074686174206960408201526839903737ba1037bbb760b91b606082015260800190565b6020808252602f908201527f4552433732314d657461646174613a2055524920717565727920666f72206e6f60408201526e3732bc34b9ba32b73a103a37b5b2b760891b606082015260800190565b60208082526021908201527f4552433732313a20617070726f76616c20746f2063757272656e74206f776e656040820152603960f91b606082015260800190565b60208082526031908201527f4552433732313a207472616e736665722063616c6c6572206973206e6f74206f6040820152701ddb995c881b9bdc88185c1c1c9bdd9959607a1b606082015260800190565b6020808252601a908201527f437573746f6d4552433732313a20756e617574686f72697a6564000000000000604082015260600190565b90815260200190565b60008219821115611a7957611a79611b3f565b500190565b600082611a8d57611a8d611b55565b500490565b600082821015611aa457611aa4611b3f565b500390565b60005b83811015611ac4578181015183820152602001611aac565b8381111561081a5750506000910152565b600281046001821680611ae957607f821691505b60208210811415611b0a57634e487b7160e01b600052602260045260246000fd5b50919050565b6000600019821415611b2457611b24611b3f565b5060010190565b600082611b3a57611b3a611b55565b500690565b634e487b7160e01b600052601160045260246000fd5b634e487b7160e01b600052601260045260246000fd5b634e487b7160e01b600052604160045260246000fd5b6001600160e01b031981168114611b9757600080fd5b5056fea2646970667358221220d2c0db342cde30ed6b3420b5828af8abe471ebbda29c6a0a68959bad3aa5b06564736f6c63430008000033",
  "immutableReferences": {},
  "source": "// SPDX-License-Identifier: MIT\n\npragma solidity ^0.8.0;\n\nimport \"@openzeppelin/contracts/token/ERC721/extensions/ERC721URIStorage.sol\";\nimport \"@openzeppelin/contracts/access/Ownable.sol\";\n\ncontract CustomERC721 is Ownable, ERC721URIStorage {\n    uint256 public tokenId = 0;\n    \n    // Authorized list\n    mapping(address => bool) public authorized;\n    \n    constructor(\n        string memory _name,\n        string memory _symbol,\n        address _to,\n        string memory _tokenURI\n    ) ERC721(_name, _symbol) {\n        _mint(_to, tokenId);\n        _setTokenURI(tokenId, _tokenURI);\n    }\n\n    modifier isAuthorized() {\n        require(\n            msg.sender == owner() || authorized[msg.sender] == true, \n            \"CustomERC721: unauthorized\"\n        );\n        _;\n    }\n\n    function createCollectible(string memory tokenURI) public isAuthorized returns (uint256) {\n        tokenId = tokenId + 1;\n        _mint(msg.sender, tokenId);\n        _setTokenURI(tokenId, tokenURI);\n        return tokenId;\n    }\n\n    function addAuthorized(address auth) public onlyOwner {\n        authorized[auth] = true;\n    }\n\n    function clearAuthorized(address auth) public onlyOwner {\n        authorized[auth] = false;\n    }\n\n    function checkAuthorized(address auth) public view returns (bool) {\n        return authorized[auth];\n    }\n}\n",
  "sourcePath": "/home/trung/Work/reference/morphe/task/dApp/ml-NFT-tool/erc721/contracts/CustomERC721.sol",
  "compiler": {
    "name": "solc",
    "version": "0.8.0+commit.c7dfd78e.Emscripten.clang"
  },
  "schemaVersion": "3.3.4",
  "updatedAt": "2021-04-13T16:11:14.692Z",
  "devdoc": {
    "kind": "dev",
    "methods": {
      "approve(address,uint256)": {
        "details": "See {IERC721-approve}."
      },
      "balanceOf(address)": {
        "details": "See {IERC721-balanceOf}."
      },
      "getApproved(uint256)": {
        "details": "See {IERC721-getApproved}."
      },
      "isApprovedForAll(address,address)": {
        "details": "See {IERC721-isApprovedForAll}."
      },
      "name()": {
        "details": "See {IERC721Metadata-name}."
      },
      "owner()": {
        "details": "Returns the address of the current owner."
      },
      "ownerOf(uint256)": {
        "details": "See {IERC721-ownerOf}."
      },
      "renounceOwnership()": {
        "details": "Leaves the contract without owner. It will not be possible to call `onlyOwner` functions anymore. Can only be called by the current owner. NOTE: Renouncing ownership will leave the contract without an owner, thereby removing any functionality that is only available to the owner."
      },
      "safeTransferFrom(address,address,uint256)": {
        "details": "See {IERC721-safeTransferFrom}."
      },
      "safeTransferFrom(address,address,uint256,bytes)": {
        "details": "See {IERC721-safeTransferFrom}."
      },
      "setApprovalForAll(address,bool)": {
        "details": "See {IERC721-setApprovalForAll}."
      },
      "supportsInterface(bytes4)": {
        "details": "See {IERC165-supportsInterface}."
      },
      "symbol()": {
        "details": "See {IERC721Metadata-symbol}."
      },
      "tokenURI(uint256)": {
        "details": "See {IERC721Metadata-tokenURI}."
      },
      "transferFrom(address,address,uint256)": {
        "details": "See {IERC721-transferFrom}."
      },
      "transferOwnership(address)": {
        "details": "Transfers ownership of the contract to a new account (`newOwner`). Can only be called by the current owner."
      }
    },
    "version": 1
  },
  "userdoc": {
    "kind": "user",
    "methods": {},
    "version": 1
  }
}