{
  "contractName": "CustomERC721",
  "abi": [
    {
      "inputs": [
        {
          "internalType": "string",
          "name": "name_",
          "type": "string"
        },
        {
          "internalType": "string",
          "name": "symbol_",
          "type": "string"
        },
        {
          "internalType": "uint256",
          "name": "chainId_",
          "type": "uint256"
        }
      ],
      "stateMutability": "nonpayable",
      "type": "constructor"
    },
    {
      "anonymous": false,
      "inputs": [
        {
          "indexed": true,
          "internalType": "address",
          "name": "owner",
          "type": "address"
        },
        {
          "indexed": true,
          "internalType": "address",
          "name": "approved",
          "type": "address"
        },
        {
          "indexed": true,
          "internalType": "uint256",
          "name": "tokenId",
          "type": "uint256"
        }
      ],
      "name": "Approval",
      "type": "event"
    },
    {
      "anonymous": false,
      "inputs": [
        {
          "indexed": true,
          "internalType": "address",
          "name": "owner",
          "type": "address"
        },
        {
          "indexed": true,
          "internalType": "address",
          "name": "operator",
          "type": "address"
        },
        {
          "indexed": false,
          "internalType": "bool",
          "name": "approved",
          "type": "bool"
        }
      ],
      "name": "ApprovalForAll",
      "type": "event"
    },
    {
      "anonymous": false,
      "inputs": [
        {
          "indexed": false,
          "internalType": "address",
          "name": "userAddress",
          "type": "address"
        },
        {
          "indexed": false,
          "internalType": "address payable",
          "name": "relayerAddress",
          "type": "address"
        },
        {
          "indexed": false,
          "internalType": "bytes",
          "name": "functionSignature",
          "type": "bytes"
        }
      ],
      "name": "MetaTransactionExecuted",
      "type": "event"
    },
    {
      "anonymous": false,
      "inputs": [
        {
          "indexed": true,
          "internalType": "address",
          "name": "previousOwner",
          "type": "address"
        },
        {
          "indexed": true,
          "internalType": "address",
          "name": "newOwner",
          "type": "address"
        }
      ],
      "name": "OwnershipTransferred",
      "type": "event"
    },
    {
      "anonymous": false,
      "inputs": [
        {
          "indexed": true,
          "internalType": "address",
          "name": "from",
          "type": "address"
        },
        {
          "indexed": true,
          "internalType": "address",
          "name": "to",
          "type": "address"
        },
        {
          "indexed": true,
          "internalType": "uint256",
          "name": "tokenId",
          "type": "uint256"
        }
      ],
      "name": "Transfer",
      "type": "event"
    },
    {
      "inputs": [
        {
          "internalType": "address",
          "name": "to",
          "type": "address"
        },
        {
          "internalType": "uint256",
          "name": "tokenId",
          "type": "uint256"
        }
      ],
      "name": "approve",
      "outputs": [],
      "stateMutability": "nonpayable",
      "type": "function"
    },
    {
      "inputs": [
        {
          "internalType": "address",
          "name": "",
          "type": "address"
        }
      ],
      "name": "authorized",
      "outputs": [
        {
          "internalType": "bool",
          "name": "",
          "type": "bool"
        }
      ],
      "stateMutability": "view",
      "type": "function"
    },
    {
      "inputs": [
        {
          "internalType": "address",
          "name": "owner",
          "type": "address"
        }
      ],
      "name": "balanceOf",
      "outputs": [
        {
          "internalType": "uint256",
          "name": "",
          "type": "uint256"
        }
      ],
      "stateMutability": "view",
      "type": "function"
    },
    {
      "inputs": [
        {
          "internalType": "address",
          "name": "userAddress",
          "type": "address"
        },
        {
          "internalType": "bytes",
          "name": "functionSignature",
          "type": "bytes"
        },
        {
          "internalType": "bytes32",
          "name": "sigR",
          "type": "bytes32"
        },
        {
          "internalType": "bytes32",
          "name": "sigS",
          "type": "bytes32"
        },
        {
          "internalType": "uint8",
          "name": "sigV",
          "type": "uint8"
        }
      ],
      "name": "executeMetaTransaction",
      "outputs": [
        {
          "internalType": "bytes",
          "name": "",
          "type": "bytes"
        }
      ],
      "stateMutability": "payable",
      "type": "function"
    },
    {
      "inputs": [
        {
          "internalType": "uint256",
          "name": "tokenId",
          "type": "uint256"
        }
      ],
      "name": "getApproved",
      "outputs": [
        {
          "internalType": "address",
          "name": "",
          "type": "address"
        }
      ],
      "stateMutability": "view",
      "type": "function"
    },
    {
      "inputs": [],
      "name": "getDomainSeparator",
      "outputs": [
        {
          "internalType": "bytes32",
          "name": "",
          "type": "bytes32"
        }
      ],
      "stateMutability": "view",
      "type": "function"
    },
    {
      "inputs": [
        {
          "internalType": "address",
          "name": "user",
          "type": "address"
        }
      ],
      "name": "getNonce",
      "outputs": [
        {
          "internalType": "uint256",
          "name": "nonce",
          "type": "uint256"
        }
      ],
      "stateMutability": "view",
      "type": "function"
    },
    {
      "inputs": [
        {
          "internalType": "address",
          "name": "owner",
          "type": "address"
        },
        {
          "internalType": "address",
          "name": "operator",
          "type": "address"
        }
      ],
      "name": "isApprovedForAll",
      "outputs": [
        {
          "internalType": "bool",
          "name": "",
          "type": "bool"
        }
      ],
      "stateMutability": "view",
      "type": "function"
    },
    {
      "inputs": [],
      "name": "name",
      "outputs": [
        {
          "internalType": "string",
          "name": "",
          "type": "string"
        }
      ],
      "stateMutability": "view",
      "type": "function"
    },
    {
      "inputs": [],
      "name": "owner",
      "outputs": [
        {
          "internalType": "address",
          "name": "",
          "type": "address"
        }
      ],
      "stateMutability": "view",
      "type": "function"
    },
    {
      "inputs": [
        {
          "internalType": "uint256",
          "name": "tokenId",
          "type": "uint256"
        }
      ],
      "name": "ownerOf",
      "outputs": [
        {
          "internalType": "address",
          "name": "",
          "type": "address"
        }
      ],
      "stateMutability": "view",
      "type": "function"
    },
    {
      "inputs": [],
      "name": "renounceOwnership",
      "outputs": [],
      "stateMutability": "nonpayable",
      "type": "function"
    },
    {
      "inputs": [
        {
          "internalType": "address",
          "name": "from",
          "type": "address"
        },
        {
          "internalType": "address",
          "name": "to",
          "type": "address"
        },
        {
          "internalType": "uint256",
          "name": "tokenId",
          "type": "uint256"
        }
      ],
      "name": "safeTransferFrom",
      "outputs": [],
      "stateMutability": "nonpayable",
      "type": "function"
    },
    {
      "inputs": [
        {
          "internalType": "address",
          "name": "from",
          "type": "address"
        },
        {
          "internalType": "address",
          "name": "to",
          "type": "address"
        },
        {
          "internalType": "uint256",
          "name": "tokenId",
          "type": "uint256"
        },
        {
          "internalType": "bytes",
          "name": "_data",
          "type": "bytes"
        }
      ],
      "name": "safeTransferFrom",
      "outputs": [],
      "stateMutability": "nonpayable",
      "type": "function"
    },
    {
      "inputs": [
        {
          "internalType": "address",
          "name": "operator",
          "type": "address"
        },
        {
          "internalType": "bool",
          "name": "approved",
          "type": "bool"
        }
      ],
      "name": "setApprovalForAll",
      "outputs": [],
      "stateMutability": "nonpayable",
      "type": "function"
    },
    {
      "inputs": [
        {
          "internalType": "bytes4",
          "name": "interfaceId",
          "type": "bytes4"
        }
      ],
      "name": "supportsInterface",
      "outputs": [
        {
          "internalType": "bool",
          "name": "",
          "type": "bool"
        }
      ],
      "stateMutability": "view",
      "type": "function"
    },
    {
      "inputs": [],
      "name": "symbol",
      "outputs": [
        {
          "internalType": "string",
          "name": "",
          "type": "string"
        }
      ],
      "stateMutability": "view",
      "type": "function"
    },
    {
      "inputs": [],
      "name": "tokenId",
      "outputs": [
        {
          "internalType": "uint256",
          "name": "",
          "type": "uint256"
        }
      ],
      "stateMutability": "view",
      "type": "function"
    },
    {
      "inputs": [
        {
          "internalType": "uint256",
          "name": "tokenId",
          "type": "uint256"
        }
      ],
      "name": "tokenURI",
      "outputs": [
        {
          "internalType": "string",
          "name": "",
          "type": "string"
        }
      ],
      "stateMutability": "view",
      "type": "function"
    },
    {
      "inputs": [
        {
          "internalType": "address",
          "name": "from",
          "type": "address"
        },
        {
          "internalType": "address",
          "name": "to",
          "type": "address"
        },
        {
          "internalType": "uint256",
          "name": "tokenId",
          "type": "uint256"
        }
      ],
      "name": "transferFrom",
      "outputs": [],
      "stateMutability": "nonpayable",
      "type": "function"
    },
    {
      "inputs": [
        {
          "internalType": "address",
          "name": "newOwner",
          "type": "address"
        }
      ],
      "name": "transferOwnership",
      "outputs": [],
      "stateMutability": "nonpayable",
      "type": "function"
    },
    {
      "inputs": [
        {
          "internalType": "string",
          "name": "tokenURI",
          "type": "string"
        }
      ],
      "name": "createCollectible",
      "outputs": [
        {
          "internalType": "uint256",
          "name": "",
          "type": "uint256"
        }
      ],
      "stateMutability": "nonpayable",
      "type": "function"
    },
    {
      "inputs": [
        {
          "internalType": "address",
          "name": "auth",
          "type": "address"
        }
      ],
      "name": "addAuthorized",
      "outputs": [],
      "stateMutability": "nonpayable",
      "type": "function"
    },
    {
      "inputs": [
        {
          "internalType": "address",
          "name": "auth",
          "type": "address"
        }
      ],
      "name": "clearAuthorized",
      "outputs": [],
      "stateMutability": "nonpayable",
      "type": "function"
    },
    {
      "inputs": [
        {
          "internalType": "address",
          "name": "auth",
          "type": "address"
        }
      ],
      "name": "checkAuthorized",
      "outputs": [
        {
          "internalType": "bool",
          "name": "",
          "type": "bool"
        }
      ],
      "stateMutability": "view",
      "type": "function"
    }
  ],
  "bytecode": "0x60806040526000600a553480156200001657600080fd5b5060405162002761380380620027618339810160408190526200003991620002c6565b6040518060400160405280600f81526020016e6d6f7270686575736c6162732e696f60881b815250604051806040016040528060018152602001603160f81b8152508285856000620000906200017160201b60201c565b600080546001600160a01b0319166001600160a01b0383169081178255604051929350917f8be0079c531659141344cd1fd0a4f28419497f9722a3daafe3b4186f6b6457e0908290a3508151620000ef90600190602085019062000175565b5080516200010590600290602084019062000175565b5050506040518060800160405280604f815260200162002712604f913980516020918201208451858301208451858401206040516200014994309187910162000336565b60405160208183030381529060405280519060200120600881905550505050505050620003b5565b3390565b828054620001839062000362565b90600052602060002090601f016020900481019282620001a75760008555620001f2565b82601f10620001c257805160ff1916838001178555620001f2565b82800160010185558215620001f2579182015b82811115620001f2578251825591602001919060010190620001d5565b506200020092915062000204565b5090565b5b8082111562000200576000815560010162000205565b600082601f8301126200022c578081fd5b81516001600160401b03808211156200024957620002496200039f565b6040516020601f8401601f19168201810183811183821017156200027157620002716200039f565b604052838252858401810187101562000288578485fd5b8492505b83831015620002ab57858301810151828401820152918201916200028c565b83831115620002bc57848185840101525b5095945050505050565b600080600060608486031215620002db578283fd5b83516001600160401b0380821115620002f2578485fd5b62000300878388016200021b565b9450602086015191508082111562000316578384fd5b5062000325868287016200021b565b925050604084015190509250925092565b948552602085019390935260408401919091526001600160a01b03166060830152608082015260a00190565b6002810460018216806200037757607f821691505b602082108114156200039957634e487b7160e01b600052602260045260246000fd5b50919050565b634e487b7160e01b600052604160045260246000fd5b61234d80620003c56000396000f3fe6080604052600436106101665760003560e01c806370a08231116100d1578063b91816111161008a578063e3055f8e11610064578063e3055f8e14610406578063e985e9c514610426578063ed24911d14610446578063f2fde38b1461045b57610166565b8063b9181611146103a6578063c87b56dd146103c6578063cf1c316a146103e657610166565b806370a0823114610307578063715018a6146103275780638da5cb5b1461033c57806395d89b4114610351578063a22cb46514610366578063b88d4fde1461038657610166565b806317d70f7c1161012357806317d70f7c1461024557806323b872dd146102675780632d0335ab1461028757806331f1f3c3146102a757806342842e0e146102c75780636352211e146102e757610166565b806301ffc9a71461016b57806303bea2d3146101a157806306fdde03146101c3578063081812fc146101e5578063095ea7b3146102125780630c53c51c14610232575b600080fd5b34801561017757600080fd5b5061018b610186366004611959565b61047b565b6040516101989190611b3e565b60405180910390f35b3480156101ad57600080fd5b506101c16101bc366004611790565b6104c3565b005b3480156101cf57600080fd5b506101d861052c565b6040516101989190611b94565b3480156101f157600080fd5b506102056102003660046119d7565b6105bf565b6040516101989190611ab8565b34801561021e57600080fd5b506101c161022d366004611930565b610602565b6101d86102403660046118b7565b61069a565b34801561025157600080fd5b5061025a61081a565b6040516101989190611b49565b34801561027357600080fd5b506101c16102823660046117dc565b610820565b34801561029357600080fd5b5061025a6102a2366004611790565b610858565b3480156102b357600080fd5b5061025a6102c2366004611991565b610873565b3480156102d357600080fd5b506101c16102e23660046117dc565b610921565b3480156102f357600080fd5b506102056103023660046119d7565b61093c565b34801561031357600080fd5b5061025a610322366004611790565b610971565b34801561033357600080fd5b506101c16109b5565b34801561034857600080fd5b50610205610a3e565b34801561035d57600080fd5b506101d8610a4d565b34801561037257600080fd5b506101c161038136600461187d565b610a5c565b34801561039257600080fd5b506101c16103a1366004611817565b610b2a565b3480156103b257600080fd5b5061018b6103c1366004611790565b610b69565b3480156103d257600080fd5b506101d86103e13660046119d7565b610b7e565b3480156103f257600080fd5b506101c1610401366004611790565b610c9f565b34801561041257600080fd5b5061018b610421366004611790565b610d02565b34801561043257600080fd5b5061018b6104413660046117aa565b610d56565b34801561045257600080fd5b5061025a610d84565b34801561046757600080fd5b506101c1610476366004611790565b610d8a565b60006001600160e01b031982166380ac58cd60e01b14806104ac57506001600160e01b03198216635b5e139f60e01b145b806104bb57506104bb82610e4a565b90505b919050565b6104cb610e63565b6001600160a01b03166104dc610a3e565b6001600160a01b03161461050b5760405162461bcd60e51b815260040161050290611fc9565b60405180910390fd5b6001600160a01b03166000908152600b60205260409020805460ff19169055565b60606001805461053b9061220f565b80601f01602080910402602001604051908101604052809291908181526020018280546105679061220f565b80156105b45780601f10610589576101008083540402835291602001916105b4565b820191906000526020600020905b81548152906001019060200180831161059757829003601f168201915b505050505090505b90565b60006105ca82610e67565b6105e65760405162461bcd60e51b815260040161050290611f7d565b506000908152600560205260409020546001600160a01b031690565b600061060d8261093c565b9050806001600160a01b0316836001600160a01b031614156106415760405162461bcd60e51b8152600401610502906120d7565b806001600160a01b0316610653610e63565b6001600160a01b0316148061066f575061066f81610441610e63565b61068b5760405162461bcd60e51b815260040161050290611db9565b6106958383610e84565b505050565b60408051606081810183526001600160a01b038816600081815260096020908152908590205484528301529181018690526106d88782878787610ef2565b6106f45760405162461bcd60e51b815260040161050290612047565b6001600160a01b038716600090815260096020526040902054610718906001610f98565b6001600160a01b0388166000908152600960205260409081902091909155517f5845892132946850460bff5a0083f71031bc5bf9aadcd40f1de79423eac9b10b9061076890899033908a90611acc565b60405180910390a1600080306001600160a01b0316888a604051602001610790929190611a37565b60408051601f19818403018152908290526107aa91611a1b565b6000604051808303816000865af19150503d80600081146107e7576040519150601f19603f3d011682016040523d82523d6000602084013e6107ec565b606091505b50915091508161080e5760405162461bcd60e51b815260040161050290611c3f565b98975050505050505050565b600a5481565b61083161082b610e63565b82610fab565b61084d5760405162461bcd60e51b815260040161050290612118565b610695838383611028565b6001600160a01b031660009081526009602052604090205490565b600061087d610a3e565b6001600160a01b031661088e611155565b6001600160a01b031614806108cd5750600b60006108aa611155565b6001600160a01b0316815260208101919091526040016000205460ff1615156001145b6108e95760405162461bcd60e51b815260040161050290612169565b600a546108f79060016121a0565b600a5561090d610905611155565b600a546111b1565b610919600a5483611290565b5050600a5490565b61069583838360405180602001604052806000815250610b2a565b6000818152600360205260408120546001600160a01b0316806104bb5760405162461bcd60e51b815260040161050290611e60565b60006001600160a01b0382166109995760405162461bcd60e51b815260040161050290611e16565b506001600160a01b031660009081526004602052604090205490565b6109bd610e63565b6001600160a01b03166109ce610a3e565b6001600160a01b0316146109f45760405162461bcd60e51b815260040161050290611fc9565b600080546040516001600160a01b03909116907f8be0079c531659141344cd1fd0a4f28419497f9722a3daafe3b4186f6b6457e0908390a3600080546001600160a01b0319169055565b6000546001600160a01b031690565b60606002805461053b9061220f565b610a64610e63565b6001600160a01b0316826001600160a01b03161415610a955760405162461bcd60e51b815260040161050290611cf1565b8060066000610aa2610e63565b6001600160a01b03908116825260208083019390935260409182016000908120918716808252919093529120805460ff191692151592909217909155610ae6610e63565b6001600160a01b03167f17307eab39ab6107e8899845ad3d59bd9653f200f220920489ca2b5937696c3183604051610b1e9190611b3e565b60405180910390a35050565b610b3b610b35610e63565b83610fab565b610b575760405162461bcd60e51b815260040161050290612118565b610b63848484846112d4565b50505050565b600b6020526000908152604090205460ff1681565b6060610b8982610e67565b610ba55760405162461bcd60e51b815260040161050290611f2c565b60008281526007602052604081208054610bbe9061220f565b80601f0160208091040260200160405190810160405280929190818152602001828054610bea9061220f565b8015610c375780601f10610c0c57610100808354040283529160200191610c37565b820191906000526020600020905b815481529060010190602001808311610c1a57829003601f168201915b505050505090506000610c48611307565b9050805160001415610c5c575090506104be565b815115610c8e578082604051602001610c76929190611a6e565b604051602081830303815290604052925050506104be565b610c9784611319565b949350505050565b610ca7610e63565b6001600160a01b0316610cb8610a3e565b6001600160a01b031614610cde5760405162461bcd60e51b815260040161050290611fc9565b6001600160a01b03166000908152600b60205260409020805460ff19166001179055565b6000610d0c610a3e565b6001600160a01b0316610d1d611155565b6001600160a01b03161415610d34575060016104be565b506001600160a01b0381166000908152600b602052604090205460ff166104be565b6001600160a01b03918216600090815260066020908152604080832093909416825291909152205460ff1690565b60085490565b610d92610e63565b6001600160a01b0316610da3610a3e565b6001600160a01b031614610dc95760405162461bcd60e51b815260040161050290611fc9565b6001600160a01b038116610def5760405162461bcd60e51b815260040161050290611bf9565b600080546040516001600160a01b03808516939216917f8be0079c531659141344cd1fd0a4f28419497f9722a3daafe3b4186f6b6457e091a3600080546001600160a01b0319166001600160a01b0392909216919091179055565b6001600160e01b031981166301ffc9a760e01b14919050565b3390565b6000908152600360205260409020546001600160a01b0316151590565b600081815260056020526040902080546001600160a01b0319166001600160a01b0384169081179091558190610eb98261093c565b6001600160a01b03167f8c5be1e5ebec7d5bd14f71427d1e84f3dd0314c0f7b2291e5b200ac8c7c3b92560405160405180910390a45050565b60006001600160a01b038616610f1a5760405162461bcd60e51b815260040161050290611d74565b6001610f2d610f288761139b565b6113f9565b83868660405160008152602001604052604051610f4d9493929190611b76565b6020604051602081039080840390855afa158015610f6f573d6000803e3d6000fd5b505050602060405103516001600160a01b0316866001600160a01b031614905095945050505050565b6000610fa482846121a0565b9392505050565b6000610fb682610e67565b610fd25760405162461bcd60e51b815260040161050290611d28565b6000610fdd8361093c565b9050806001600160a01b0316846001600160a01b031614806110185750836001600160a01b031661100d846105bf565b6001600160a01b0316145b80610c975750610c978185610d56565b826001600160a01b031661103b8261093c565b6001600160a01b0316146110615760405162461bcd60e51b815260040161050290611ffe565b6001600160a01b0382166110875760405162461bcd60e51b815260040161050290611cad565b611092838383610695565b61109d600082610e84565b6001600160a01b03831660009081526004602052604081208054600192906110c69084906121cc565b90915550506001600160a01b03821660009081526004602052604081208054600192906110f49084906121a0565b909155505060008181526003602052604080822080546001600160a01b0319166001600160a01b0386811691821790925591518493918716917fddf252ad1be2c89b69c2b068fc378daa952ba7f163c4a11628f55a4df523b3ef91a4505050565b6000333014156111ac57600080368080601f0160208091040260200160405190810160405280939291908181526020018383808284376000920191909152505050503601516001600160a01b031691506105bc9050565b503390565b6001600160a01b0382166111d75760405162461bcd60e51b815260040161050290611ef7565b6111e081610e67565b156111fd5760405162461bcd60e51b815260040161050290611c76565b61120960008383610695565b6001600160a01b03821660009081526004602052604081208054600192906112329084906121a0565b909155505060008181526003602052604080822080546001600160a01b0319166001600160a01b03861690811790915590518392907fddf252ad1be2c89b69c2b068fc378daa952ba7f163c4a11628f55a4df523b3ef908290a45050565b61129982610e67565b6112b55760405162461bcd60e51b815260040161050290611ea9565b6000828152600760209081526040909120825161069592840190611651565b6112df848484611028565b6112eb84848484611415565b610b635760405162461bcd60e51b815260040161050290611ba7565b60408051602081019091526000815290565b606061132482610e67565b6113405760405162461bcd60e51b815260040161050290612088565b600061134a611307565b9050600081511161136a5760405180602001604052806000815250610fa4565b8061137484611530565b604051602001611385929190611a6e565b6040516020818303038152906040529392505050565b60006040518060800160405280604381526020016122d560439139805160209182012083518483015160408087015180519086012090516113dc9501611b52565b604051602081830303815290604052805190602001209050919050565b6000611403610d84565b826040516020016113dc929190611a9d565b6000611429846001600160a01b031661164b565b1561152557836001600160a01b031663150b7a02611445610e63565b8786866040518563ffffffff1660e01b81526004016114679493929190611b01565b602060405180830381600087803b15801561148157600080fd5b505af19250505080156114b1575060408051601f3d908101601f191682019092526114ae91810190611975565b60015b61150b573d8080156114df576040519150601f19603f3d011682016040523d82523d6000602084013e6114e4565b606091505b5080516115035760405162461bcd60e51b815260040161050290611ba7565b805181602001fd5b6001600160e01b031916630a85bd0160e11b149050610c97565b506001949350505050565b60608161155557506040805180820190915260018152600360fc1b60208201526104be565b8160005b811561157f57806115698161224a565b91506115789050600a836121b8565b9150611559565b60008167ffffffffffffffff8111156115a857634e487b7160e01b600052604160045260246000fd5b6040519080825280601f01601f1916602001820160405280156115d2576020820181803683370190505b5090505b8415610c97576115e76001836121cc565b91506115f4600a86612265565b6115ff9060306121a0565b60f81b81838151811061162257634e487b7160e01b600052603260045260246000fd5b60200101906001600160f81b031916908160001a905350611644600a866121b8565b94506115d6565b3b151590565b82805461165d9061220f565b90600052602060002090601f01602090048101928261167f57600085556116c5565b82601f1061169857805160ff19168380011785556116c5565b828001600101855582156116c5579182015b828111156116c55782518255916020019190600101906116aa565b506116d19291506116d5565b5090565b5b808211156116d157600081556001016116d6565b600067ffffffffffffffff80841115611705576117056122a5565b604051601f8501601f191681016020018281118282101715611729576117296122a5565b60405284815291508183850186101561174157600080fd5b8484602083013760006020868301015250509392505050565b80356001600160a01b03811681146104be57600080fd5b600082601f830112611781578081fd5b610fa4838335602085016116ea565b6000602082840312156117a1578081fd5b610fa48261175a565b600080604083850312156117bc578081fd5b6117c58361175a565b91506117d36020840161175a565b90509250929050565b6000806000606084860312156117f0578081fd5b6117f98461175a565b92506118076020850161175a565b9150604084013590509250925092565b6000806000806080858703121561182c578081fd5b6118358561175a565b93506118436020860161175a565b925060408501359150606085013567ffffffffffffffff811115611865578182fd5b61187187828801611771565b91505092959194509250565b6000806040838503121561188f578182fd5b6118988361175a565b9150602083013580151581146118ac578182fd5b809150509250929050565b600080600080600060a086880312156118ce578081fd5b6118d78661175a565b9450602086013567ffffffffffffffff8111156118f2578182fd5b6118fe88828901611771565b9450506040860135925060608601359150608086013560ff81168114611922578182fd5b809150509295509295909350565b60008060408385031215611942578182fd5b61194b8361175a565b946020939093013593505050565b60006020828403121561196a578081fd5b8135610fa4816122bb565b600060208284031215611986578081fd5b8151610fa4816122bb565b6000602082840312156119a2578081fd5b813567ffffffffffffffff8111156119b8578182fd5b8201601f810184136119c8578182fd5b610c97848235602084016116ea565b6000602082840312156119e8578081fd5b5035919050565b60008151808452611a078160208601602086016121e3565b601f01601f19169290920160200192915050565b60008251611a2d8184602087016121e3565b9190910192915050565b60008351611a498184602088016121e3565b60609390931b6bffffffffffffffffffffffff19169190920190815260140192915050565b60008351611a808184602088016121e3565b835190830190611a948183602088016121e3565b01949350505050565b61190160f01b81526002810192909252602282015260420190565b6001600160a01b0391909116815260200190565b6001600160a01b03848116825283166020820152606060408201819052600090611af8908301846119ef565b95945050505050565b6001600160a01b0385811682528416602082015260408101839052608060608201819052600090611b34908301846119ef565b9695505050505050565b901515815260200190565b90815260200190565b93845260208401929092526001600160a01b03166040830152606082015260800190565b93845260ff9290921660208401526040830152606082015260800190565b600060208252610fa460208301846119ef565b60208082526032908201527f4552433732313a207472616e7366657220746f206e6f6e20455243373231526560408201527131b2b4bb32b91034b6b83632b6b2b73a32b960711b606082015260800190565b60208082526026908201527f4f776e61626c653a206e6577206f776e657220697320746865207a65726f206160408201526564647265737360d01b606082015260800190565b6020808252601c908201527f46756e6374696f6e2063616c6c206e6f74207375636365737366756c00000000604082015260600190565b6020808252601c908201527f4552433732313a20746f6b656e20616c7265616479206d696e74656400000000604082015260600190565b60208082526024908201527f4552433732313a207472616e7366657220746f20746865207a65726f206164646040820152637265737360e01b606082015260800190565b60208082526019908201527f4552433732313a20617070726f766520746f2063616c6c657200000000000000604082015260600190565b6020808252602c908201527f4552433732313a206f70657261746f7220717565727920666f72206e6f6e657860408201526b34b9ba32b73a103a37b5b2b760a11b606082015260800190565b60208082526025908201527f4e61746976654d6574615472616e73616374696f6e3a20494e56414c49445f5360408201526424a3a722a960d91b606082015260800190565b60208082526038908201527f4552433732313a20617070726f76652063616c6c6572206973206e6f74206f7760408201527f6e6572206e6f7220617070726f76656420666f7220616c6c0000000000000000606082015260800190565b6020808252602a908201527f4552433732313a2062616c616e636520717565727920666f7220746865207a65604082015269726f206164647265737360b01b606082015260800190565b60208082526029908201527f4552433732313a206f776e657220717565727920666f72206e6f6e657869737460408201526832b73a103a37b5b2b760b91b606082015260800190565b6020808252602e908201527f45524337323155524953746f726167653a2055524920736574206f66206e6f6e60408201526d32bc34b9ba32b73a103a37b5b2b760911b606082015260800190565b6020808252818101527f4552433732313a206d696e7420746f20746865207a65726f2061646472657373604082015260600190565b60208082526031908201527f45524337323155524953746f726167653a2055524920717565727920666f72206040820152703737b732bc34b9ba32b73a103a37b5b2b760791b606082015260800190565b6020808252602c908201527f4552433732313a20617070726f76656420717565727920666f72206e6f6e657860408201526b34b9ba32b73a103a37b5b2b760a11b606082015260800190565b6020808252818101527f4f776e61626c653a2063616c6c6572206973206e6f7420746865206f776e6572604082015260600190565b60208082526029908201527f4552433732313a207472616e73666572206f6620746f6b656e2074686174206960408201526839903737ba1037bbb760b91b606082015260800190565b60208082526021908201527f5369676e657220616e64207369676e617475726520646f206e6f74206d6174636040820152600d60fb1b606082015260800190565b6020808252602f908201527f4552433732314d657461646174613a2055524920717565727920666f72206e6f60408201526e3732bc34b9ba32b73a103a37b5b2b760891b606082015260800190565b60208082526021908201527f4552433732313a20617070726f76616c20746f2063757272656e74206f776e656040820152603960f91b606082015260800190565b60208082526031908201527f4552433732313a207472616e736665722063616c6c6572206973206e6f74206f6040820152701ddb995c881b9bdc88185c1c1c9bdd9959607a1b606082015260800190565b6020808252601a908201527f437573746f6d4552433732313a20756e617574686f72697a6564000000000000604082015260600190565b600082198211156121b3576121b3612279565b500190565b6000826121c7576121c761228f565b500490565b6000828210156121de576121de612279565b500390565b60005b838110156121fe5781810151838201526020016121e6565b83811115610b635750506000910152565b60028104600182168061222357607f821691505b6020821081141561224457634e487b7160e01b600052602260045260246000fd5b50919050565b600060001982141561225e5761225e612279565b5060010190565b6000826122745761227461228f565b500690565b634e487b7160e01b600052601160045260246000fd5b634e487b7160e01b600052601260045260246000fd5b634e487b7160e01b600052604160045260246000fd5b6001600160e01b0319811681146122d157600080fd5b5056fe4d6574615472616e73616374696f6e2875696e74323536206e6f6e63652c616464726573732066726f6d2c62797465732066756e6374696f6e5369676e617475726529a26469706673582212209e9af4c07da6f7bbef9b6f27fdc0de0e94cc77abbe629e7f0e7a8bee2e3e349c64736f6c63430008000033454950373132446f6d61696e28737472696e67206e616d652c737472696e672076657273696f6e2c6164647265737320766572696679696e67436f6e74726163742c627974657333322073616c7429",
  "immutableReferences": {},
  "source": "// SPDX-License-Identifier: MIT\n\npragma solidity ^0.8.0;\n\nimport \"@openzeppelin/contracts/token/ERC721/extensions/ERC721URIStorage.sol\";\nimport \"@openzeppelin/contracts/access/Ownable.sol\";\nimport \"./EIP712MetaTransaction.sol\";\n\ncontract CustomERC721 is Ownable, ERC721URIStorage, EIP712MetaTransaction {\n    \n    string private constant DOMAIN_NAME = \"morpheuslabs.io\";\n    string private constant DOMAIN_VERSION = \"1\";\n\n    uint256 public tokenId = 0;\n    \n    // Authorized list\n    mapping(address => bool) public authorized;\n    \n    constructor(string memory name_, string memory symbol_, uint256 chainId_) \n        ERC721(name_, symbol_) \n        EIP712Base(DOMAIN_NAME, DOMAIN_VERSION, chainId_) {\n    }\n\n    modifier isAuthorized() {\n        require(\n            msgSender() == owner() || authorized[msgSender()] == true, \n            \"CustomERC721: unauthorized\"\n        );\n        _;\n    }\n\n    function createCollectible(string memory tokenURI) public isAuthorized returns (uint256) {\n        tokenId = tokenId + 1;\n        _mint(msgSender(), tokenId);\n        _setTokenURI(tokenId, tokenURI);\n        return tokenId;\n    }\n\n    function addAuthorized(address auth) public onlyOwner {\n        authorized[auth] = true;\n    }\n\n    function clearAuthorized(address auth) public onlyOwner {\n        authorized[auth] = false;\n    }\n\n    function checkAuthorized(address auth) public view returns (bool) {\n        if (msgSender() == owner()) {\n            return true;\n        } else {\n            return authorized[auth];\n        }\n    }\n}\n",
  "sourcePath": "/home/trung/Work/reference/morphe/task/dApp/ml-NFT-tool/erc721/contracts/CustomERC721.sol",
  "compiler": {
    "name": "solc",
    "version": "0.8.0+commit.c7dfd78e.Emscripten.clang"
  },
  "schemaVersion": "3.3.4",
  "updatedAt": "2021-04-16T15:54:37.256Z",
  "devdoc": {
    "kind": "dev",
    "methods": {
      "approve(address,uint256)": {
        "details": "See {IERC721-approve}."
      },
      "balanceOf(address)": {
        "details": "See {IERC721-balanceOf}."
      },
      "getApproved(uint256)": {
        "details": "See {IERC721-getApproved}."
      },
      "isApprovedForAll(address,address)": {
        "details": "See {IERC721-isApprovedForAll}."
      },
      "name()": {
        "details": "See {IERC721Metadata-name}."
      },
      "owner()": {
        "details": "Returns the address of the current owner."
      },
      "ownerOf(uint256)": {
        "details": "See {IERC721-ownerOf}."
      },
      "renounceOwnership()": {
        "details": "Leaves the contract without owner. It will not be possible to call `onlyOwner` functions anymore. Can only be called by the current owner. NOTE: Renouncing ownership will leave the contract without an owner, thereby removing any functionality that is only available to the owner."
      },
      "safeTransferFrom(address,address,uint256)": {
        "details": "See {IERC721-safeTransferFrom}."
      },
      "safeTransferFrom(address,address,uint256,bytes)": {
        "details": "See {IERC721-safeTransferFrom}."
      },
      "setApprovalForAll(address,bool)": {
        "details": "See {IERC721-setApprovalForAll}."
      },
      "supportsInterface(bytes4)": {
        "details": "See {IERC165-supportsInterface}."
      },
      "symbol()": {
        "details": "See {IERC721Metadata-symbol}."
      },
      "tokenURI(uint256)": {
        "details": "See {IERC721Metadata-tokenURI}."
      },
      "transferFrom(address,address,uint256)": {
        "details": "See {IERC721-transferFrom}."
      },
      "transferOwnership(address)": {
        "details": "Transfers ownership of the contract to a new account (`newOwner`). Can only be called by the current owner."
      }
    },
    "version": 1
  },
  "userdoc": {
    "kind": "user",
    "methods": {},
    "version": 1
  }
}