{
  "contractName": "EIP712Base",
  "abi": [
    {
      "inputs": [
        {
          "internalType": "string",
          "name": "name",
          "type": "string"
        },
        {
          "internalType": "string",
          "name": "version",
          "type": "string"
        },
        {
          "internalType": "uint256",
          "name": "chainId",
          "type": "uint256"
        }
      ],
      "stateMutability": "nonpayable",
      "type": "constructor"
    },
    {
      "inputs": [],
      "name": "getDomainSeparator",
      "outputs": [
        {
          "internalType": "bytes32",
          "name": "",
          "type": "bytes32"
        }
      ],
      "stateMutability": "view",
      "type": "function"
    }
  ],
  "bytecode": "0x608060405234801561001057600080fd5b506040516102c53803806102c583398101604081905261002f91610131565b6040518060800160405280604f8152602001610276604f9139805160209182012084518583012084518584012060405161006d94309187910161019a565b604051602081830303815290604052805190602001206000819055505050506101dc565b600082601f8301126100a1578081fd5b81516001600160401b03808211156100bb576100bb6101c6565b6040516020601f8401601f19168201810183811183821017156100e0576100e06101c6565b60405283825285840181018710156100f6578485fd5b8492505b8383101561011757858301810151828401820152918201916100fa565b8383111561012757848185840101525b5095945050505050565b600080600060608486031215610145578283fd5b83516001600160401b038082111561015b578485fd5b61016787838801610091565b9450602086015191508082111561017c578384fd5b5061018986828701610091565b925050604084015190509250925092565b948552602085019390935260408401919091526001600160a01b03166060830152608082015260a00190565b634e487b7160e01b600052604160045260246000fd5b608c806101ea6000396000f3fe6080604052348015600f57600080fd5b506004361060285760003560e01c8063ed24911d14602d575b600080fd5b60336047565b604051603e9190604d565b60405180910390f35b60005490565b9081526020019056fea264697066735822122019c6c1c8c834027dcb85293e9aab36c23e3376bb51f45e82710781ee53abbd4064736f6c63430008000033454950373132446f6d61696e28737472696e67206e616d652c737472696e672076657273696f6e2c6164647265737320766572696679696e67436f6e74726163742c627974657333322073616c7429",
  "immutableReferences": {},
  "source": "//SPDX-License-Identifier: MIT\npragma solidity ^0.8.0;\n\ncontract EIP712Base {\n    \n  struct EIP712Domain {\n    string name;\n    string version;\n    address verifyingContract;\n    bytes32 salt;\n  }\n\n  bytes32 internal constant EIP712_DOMAIN_TYPEHASH = keccak256(\n    bytes(\n      \"EIP712Domain(string name,string version,address verifyingContract,bytes32 salt)\"\n    )\n  );\n\n  bytes32 private domainSeparator;\n\n  constructor(string memory name, string memory version, uint256 chainId) {\n    domainSeparator = keccak256(\n      abi.encode(\n        EIP712_DOMAIN_TYPEHASH,\n        keccak256(bytes(name)),\n        keccak256(bytes(version)),\n        address(this),\n        bytes32(chainId)\n      )\n    );\n  }\n\n  function getDomainSeparator() public view returns (bytes32) {\n    return domainSeparator;\n  }\n\n  /**\n    * Accept message hash and returns hash message in EIP712 compatible form\n    * So that it can be used to recover signer from signature signed using EIP712 formatted data\n    * https://eips.ethereum.org/EIPS/eip-712\n    * \"\\\\x19\" makes the encoding deterministic\n    * \"\\\\x01\" is the version byte to make it compatible to EIP-191\n    */\n  function toTypedMessageHash(bytes32 messageHash) internal view returns (bytes32) {\n    return keccak256(\n        abi.encodePacked(\"\\x19\\x01\", getDomainSeparator(), messageHash)\n    );\n  }\n}\n",
  "sourcePath": "/home/trung/Work/reference/morphe/task/dApp/ml-NFT-tool/erc721/contracts/EIP712Base.sol",
  "compiler": {
    "name": "solc",
    "version": "0.8.0+commit.c7dfd78e.Emscripten.clang"
  },
  "schemaVersion": "3.3.4",
  "updatedAt": "2021-04-18T06:30:29.001Z",
  "devdoc": {
    "kind": "dev",
    "methods": {},
    "version": 1
  },
  "userdoc": {
    "kind": "user",
    "methods": {},
    "version": 1
  }
}