{
  "contractName": "MorpheusNftManagerInfo",
  "abi": [
    {
      "inputs": [
        {
          "internalType": "uint256",
          "name": "chainId_",
          "type": "uint256"
        }
      ],
      "stateMutability": "nonpayable",
      "type": "constructor"
    },
    {
      "anonymous": false,
      "inputs": [
        {
          "indexed": false,
          "internalType": "address",
          "name": "userAddress",
          "type": "address"
        },
        {
          "indexed": false,
          "internalType": "address payable",
          "name": "relayerAddress",
          "type": "address"
        },
        {
          "indexed": false,
          "internalType": "bytes",
          "name": "functionSignature",
          "type": "bytes"
        }
      ],
      "name": "MetaTransactionExecuted",
      "type": "event"
    },
    {
      "anonymous": false,
      "inputs": [
        {
          "indexed": true,
          "internalType": "address",
          "name": "previousOwner",
          "type": "address"
        },
        {
          "indexed": true,
          "internalType": "address",
          "name": "newOwner",
          "type": "address"
        }
      ],
      "name": "OwnershipTransferred",
      "type": "event"
    },
    {
      "inputs": [
        {
          "internalType": "address",
          "name": "",
          "type": "address"
        },
        {
          "internalType": "uint256",
          "name": "",
          "type": "uint256"
        }
      ],
      "name": "collectionList",
      "outputs": [
        {
          "internalType": "address",
          "name": "",
          "type": "address"
        }
      ],
      "stateMutability": "view",
      "type": "function"
    },
    {
      "inputs": [
        {
          "internalType": "address",
          "name": "userAddress",
          "type": "address"
        },
        {
          "internalType": "bytes",
          "name": "functionSignature",
          "type": "bytes"
        },
        {
          "internalType": "bytes32",
          "name": "sigR",
          "type": "bytes32"
        },
        {
          "internalType": "bytes32",
          "name": "sigS",
          "type": "bytes32"
        },
        {
          "internalType": "uint8",
          "name": "sigV",
          "type": "uint8"
        }
      ],
      "name": "executeMetaTransaction",
      "outputs": [
        {
          "internalType": "bytes",
          "name": "",
          "type": "bytes"
        }
      ],
      "stateMutability": "payable",
      "type": "function"
    },
    {
      "inputs": [],
      "name": "getDomainSeparator",
      "outputs": [
        {
          "internalType": "bytes32",
          "name": "",
          "type": "bytes32"
        }
      ],
      "stateMutability": "view",
      "type": "function"
    },
    {
      "inputs": [
        {
          "internalType": "address",
          "name": "user",
          "type": "address"
        }
      ],
      "name": "getNonce",
      "outputs": [
        {
          "internalType": "uint256",
          "name": "nonce",
          "type": "uint256"
        }
      ],
      "stateMutability": "view",
      "type": "function"
    },
    {
      "inputs": [
        {
          "internalType": "address",
          "name": "",
          "type": "address"
        },
        {
          "internalType": "uint256",
          "name": "",
          "type": "uint256"
        }
      ],
      "name": "itemTxList",
      "outputs": [
        {
          "internalType": "string",
          "name": "",
          "type": "string"
        }
      ],
      "stateMutability": "view",
      "type": "function"
    },
    {
      "inputs": [],
      "name": "owner",
      "outputs": [
        {
          "internalType": "address",
          "name": "",
          "type": "address"
        }
      ],
      "stateMutability": "view",
      "type": "function"
    },
    {
      "inputs": [],
      "name": "renounceOwnership",
      "outputs": [],
      "stateMutability": "nonpayable",
      "type": "function"
    },
    {
      "inputs": [
        {
          "internalType": "address",
          "name": "newOwner",
          "type": "address"
        }
      ],
      "name": "transferOwnership",
      "outputs": [],
      "stateMutability": "nonpayable",
      "type": "function"
    },
    {
      "inputs": [
        {
          "internalType": "address",
          "name": "userAddr_",
          "type": "address"
        },
        {
          "internalType": "address",
          "name": "contractAddr_",
          "type": "address"
        }
      ],
      "name": "addCollection",
      "outputs": [],
      "stateMutability": "nonpayable",
      "type": "function"
    },
    {
      "inputs": [
        {
          "internalType": "address",
          "name": "userAddr_",
          "type": "address"
        }
      ],
      "name": "getCollection",
      "outputs": [
        {
          "internalType": "address[]",
          "name": "",
          "type": "address[]"
        }
      ],
      "stateMutability": "view",
      "type": "function"
    },
    {
      "inputs": [
        {
          "internalType": "address",
          "name": "userAddr_",
          "type": "address"
        }
      ],
      "name": "clearCollection",
      "outputs": [],
      "stateMutability": "nonpayable",
      "type": "function"
    },
    {
      "inputs": [
        {
          "internalType": "address",
          "name": "userAddr_",
          "type": "address"
        },
        {
          "internalType": "string",
          "name": "txHash_",
          "type": "string"
        }
      ],
      "name": "addItemTx",
      "outputs": [],
      "stateMutability": "nonpayable",
      "type": "function"
    },
    {
      "inputs": [
        {
          "internalType": "address",
          "name": "userAddr_",
          "type": "address"
        }
      ],
      "name": "getItemTx",
      "outputs": [
        {
          "internalType": "string[]",
          "name": "",
          "type": "string[]"
        }
      ],
      "stateMutability": "view",
      "type": "function"
    },
    {
      "inputs": [
        {
          "internalType": "address",
          "name": "userAddr_",
          "type": "address"
        }
      ],
      "name": "clearItemTx",
      "outputs": [],
      "stateMutability": "nonpayable",
      "type": "function"
    }
  ],
  "bytecode": "0x608060405234801561001057600080fd5b506040516114e53803806114e583398101604081905261002f91610133565b6040518060400160405280600f81526020016e6d6f7270686575736c6162732e696f60881b815250604051806040016040528060018152602001603160f81b81525082600061008261012f60201b60201c565b600080546001600160a01b0319166001600160a01b0383169081178255604051929350917f8be0079c531659141344cd1fd0a4f28419497f9722a3daafe3b4186f6b6457e0908290a35060405180608001604052806052815260200161149360529139805160209182012084518583012084518584012060405161010a94869130910161014b565b6040516020818303038152906040528051906020012060018190555050505050610177565b3390565b600060208284031215610144578081fd5b5051919050565b9485526020850193909352604084019190915260608301526001600160a01b0316608082015260a00190565b61130d806101866000396000f3fe6080604052600436106100dd5760003560e01c80638da5cb5b1161007f578063d0165ee611610059578063d0165ee61461023e578063e40de8871461025e578063ed24911d1461028b578063f2fde38b146102a0576100dd565b80638da5cb5b146101dc578063909b8a37146101fe578063abebdd651461021e576100dd565b80632e818906116100bb5780632e8189061461015857806338f9b9251461017a57806366087992146101a7578063715018a6146101c7576100dd565b80630c53c51c146100e25780630ccec6151461010b5780632d0335ab1461012b575b600080fd5b6100f56100f0366004610d74565b6102c0565b6040516101029190611063565b60405180910390f35b34801561011757600080fd5b506100f5610126366004610e5f565b610449565b34801561013757600080fd5b5061014b610146366004610d28565b610502565b6040516101029190611018565b34801561016457600080fd5b50610178610173366004610d28565b61051d565b005b34801561018657600080fd5b5061019a610195366004610d28565b61058b565b6040516101029190610fb8565b3480156101b357600080fd5b506101786101c2366004610e00565b61067b565b3480156101d357600080fd5b506101786106b7565b3480156101e857600080fd5b506101f1610740565b6040516101029190610f22565b34801561020a57600080fd5b50610178610219366004610d42565b610750565b34801561022a57600080fd5b50610178610239366004610d28565b61078e565b34801561024a57600080fd5b506101f1610259366004610e5f565b6107f7565b34801561026a57600080fd5b5061027e610279366004610d28565b61082f565b6040516101029190610f6b565b34801561029757600080fd5b5061014b6108a5565b3480156102ac57600080fd5b506101786102bb366004610d28565b6108ab565b60408051606081810183526001600160a01b038816600081815260026020908152908590205484528301529181018690526102fe878287878761096b565b6103235760405162461bcd60e51b815260040161031a906111ae565b60405180910390fd5b6001600160a01b038716600090815260026020526040902054610347906001610a11565b6001600160a01b0388166000908152600260205260409081902091909155517f5845892132946850460bff5a0083f71031bc5bf9aadcd40f1de79423eac9b10b9061039790899033908a90610f36565b60405180910390a1600080306001600160a01b0316888a6040516020016103bf929190610ed0565b60408051601f19818403018152908290526103d991610eb4565b6000604051808303816000865af19150503d8060008114610416576040519150601f19603f3d011682016040523d82523d6000602084013e61041b565b606091505b50915091508161043d5760405162461bcd60e51b815260040161031a906110fd565b98975050505050505050565b6004602052816000526040600020818154811061046557600080fd5b9060005260206000200160009150915050805461048190611243565b80601f01602080910402602001604051908101604052809291908181526020018280546104ad90611243565b80156104fa5780601f106104cf576101008083540402835291602001916104fa565b820191906000526020600020905b8154815290600101906020018083116104dd57829003601f168201915b505050505081565b6001600160a01b031660009081526002602052604090205490565b610525610740565b6001600160a01b0316610536610a24565b6001600160a01b03161461055c5760405162461bcd60e51b815260040161031a90611076565b6001600160a01b038116600090815260036020526040902060608051909161058691608090610afe565b505050565b6001600160a01b0381166000908152600460209081526040808320805482518185028101850190935280835260609492939192909184015b8282101561066f5783829060005260206000200180546105e290611243565b80601f016020809104026020016040519081016040528092919081815260200182805461060e90611243565b801561065b5780601f106106305761010080835404028352916020019161065b565b820191906000526020600020905b81548152906001019060200180831161063e57829003601f168201915b5050505050815260200190600101906105c3565b5050505090505b919050565b6001600160a01b038216600090815260046020908152604082208054600181018255908352918190208351610586939190910191840190610b63565b6106bf610a80565b6001600160a01b03166106d0610740565b6001600160a01b0316146106f65760405162461bcd60e51b815260040161031a90611179565b600080546040516001600160a01b03909116907f8be0079c531659141344cd1fd0a4f28419497f9722a3daafe3b4186f6b6457e0908390a3600080546001600160a01b0319169055565b6000546001600160a01b03165b90565b6001600160a01b0391821660009081526003602090815260408220805460018101825590835291200180546001600160a01b03191691909216179055565b610796610740565b6001600160a01b03166107a7610a24565b6001600160a01b0316146107cd5760405162461bcd60e51b815260040161031a90611076565b6001600160a01b038116600090815260046020526040902060608051909161058691608090610bd7565b6003602052816000526040600020818154811061081357600080fd5b6000918252602090912001546001600160a01b03169150829050565b6001600160a01b03811660009081526003602090815260409182902080548351818402810184019094528084526060939283018282801561089957602002820191906000526020600020905b81546001600160a01b0316815260019091019060200180831161087b575b50505050509050919050565b60015490565b6108b3610a80565b6001600160a01b03166108c4610740565b6001600160a01b0316146108ea5760405162461bcd60e51b815260040161031a90611179565b6001600160a01b0381166109105760405162461bcd60e51b815260040161031a906110b7565b600080546040516001600160a01b03808516939216917f8be0079c531659141344cd1fd0a4f28419497f9722a3daafe3b4186f6b6457e091a3600080546001600160a01b0319166001600160a01b0392909216919091179055565b60006001600160a01b0386166109935760405162461bcd60e51b815260040161031a90611134565b60016109a66109a187610a84565b610ae2565b838686604051600081526020016040526040516109c69493929190611045565b6020604051602081039080840390855afa1580156109e8573d6000803e3d6000fd5b505050602060405103516001600160a01b0316866001600160a01b031614905095945050505050565b6000610a1d82846111ef565b9392505050565b600033301415610a7b57600080368080601f0160208091040260200160405190810160405280939291908181526020018383808284376000920191909152505050503601516001600160a01b0316915061074d9050565b503390565b3390565b60006040518060800160405280604381526020016112956043913980516020918201208351848301516040808701518051908601209051610ac59501611021565b604051602081830303815290604052805190602001209050919050565b6000610aec6108a5565b82604051602001610ac5929190610f07565b828054828255906000526020600020908101928215610b53579160200282015b82811115610b5357825182546001600160a01b0319166001600160a01b03909116178255602090920191600190910190610b1e565b50610b5f929150610c30565b5090565b828054610b6f90611243565b90600052602060002090601f016020900481019282610b915760008555610b53565b82601f10610baa57805160ff1916838001178555610b53565b82800160010185558215610b53579182015b82811115610b53578251825591602001919060010190610bbc565b828054828255906000526020600020908101928215610c24579160200282015b82811115610c245782518051610c14918491602090910190610b63565b5091602001919060010190610bf7565b50610b5f929150610c45565b5b80821115610b5f5760008155600101610c31565b80821115610b5f576000610c598282610c62565b50600101610c45565b508054610c6e90611243565b6000825580601f10610c805750610c9e565b601f016020900490600052602060002090810190610c9e9190610c30565b50565b600067ffffffffffffffff80841115610cbc57610cbc61127e565b604051601f8501601f191681016020018281118282101715610ce057610ce061127e565b604052848152915081838501861015610cf857600080fd5b8484602083013760006020868301015250509392505050565b80356001600160a01b038116811461067657600080fd5b600060208284031215610d39578081fd5b610a1d82610d11565b60008060408385031215610d54578081fd5b610d5d83610d11565b9150610d6b60208401610d11565b90509250929050565b600080600080600060a08688031215610d8b578081fd5b610d9486610d11565b9450602086013567ffffffffffffffff811115610daf578182fd5b8601601f81018813610dbf578182fd5b610dce88823560208401610ca1565b9450506040860135925060608601359150608086013560ff81168114610df2578182fd5b809150509295509295909350565b60008060408385031215610e12578182fd5b610e1b83610d11565b9150602083013567ffffffffffffffff811115610e36578182fd5b8301601f81018513610e46578182fd5b610e5585823560208401610ca1565b9150509250929050565b60008060408385031215610e71578182fd5b610e7a83610d11565b946020939093013593505050565b60008151808452610ea0816020860160208601611213565b601f01601f19169290920160200192915050565b60008251610ec6818460208701611213565b9190910192915050565b60008351610ee2818460208801611213565b60609390931b6bffffffffffffffffffffffff19169190920190815260140192915050565b61190160f01b81526002810192909252602282015260420190565b6001600160a01b0391909116815260200190565b6001600160a01b03848116825283166020820152606060408201819052600090610f6290830184610e88565b95945050505050565b6020808252825182820181905260009190848201906040850190845b81811015610fac5783516001600160a01b031683529284019291840191600101610f87565b50909695505050505050565b6000602080830181845280855180835260408601915060408482028701019250838701855b8281101561100b57603f19888603018452610ff9858351610e88565b94509285019290850190600101610fdd565b5092979650505050505050565b90815260200190565b93845260208401929092526001600160a01b03166040830152606082015260800190565b93845260ff9290921660208401526040830152606082015260800190565b600060208252610a1d6020830184610e88565b60208082526021908201527f4d6f7270686575734e66744d616e61676572496e666f3a206e6f74206f776e656040820152603960f91b606082015260800190565b60208082526026908201527f4f776e61626c653a206e6577206f776e657220697320746865207a65726f206160408201526564647265737360d01b606082015260800190565b6020808252601c908201527f46756e6374696f6e2063616c6c206e6f74207375636365737366756c00000000604082015260600190565b60208082526025908201527f4e61746976654d6574615472616e73616374696f6e3a20494e56414c49445f5360408201526424a3a722a960d91b606082015260800190565b6020808252818101527f4f776e61626c653a2063616c6c6572206973206e6f7420746865206f776e6572604082015260600190565b60208082526021908201527f5369676e657220616e64207369676e617475726520646f206e6f74206d6174636040820152600d60fb1b606082015260800190565b6000821982111561120e57634e487b7160e01b81526011600452602481fd5b500190565b60005b8381101561122e578181015183820152602001611216565b8381111561123d576000848401525b50505050565b60028104600182168061125757607f821691505b6020821081141561127857634e487b7160e01b600052602260045260246000fd5b50919050565b634e487b7160e01b600052604160045260246000fdfe4d6574615472616e73616374696f6e2875696e74323536206e6f6e63652c616464726573732066726f6d2c62797465732066756e6374696f6e5369676e617475726529a2646970667358221220e93c242c4c65abfe64855b268bb86ebfa07a5b28d0cced9ad50eb220d0c496e264736f6c63430008000033454950373132446f6d61696e28737472696e67206e616d652c737472696e672076657273696f6e2c75696e7432353620636861696e49642c6164647265737320766572696679696e67436f6e747261637429",
  "immutableReferences": {},
  "source": "// SPDX-License-Identifier: MIT\n\npragma solidity ^0.8.0;\n\nimport \"@openzeppelin/contracts/access/Ownable.sol\";\nimport \"./EIP712MetaTransaction.sol\";\n\ncontract MorpheusNftManagerInfo is Ownable, EIP712MetaTransaction {\n    \n    string private constant DOMAIN_NAME = \"morpheuslabs.io\";\n    string private constant DOMAIN_VERSION = \"1\";\n\n    // One user address can create multiple NFT contract addresses\n    mapping(address => address[]) public collectionList;\n\n    // One user address can add multiple NFT token items\n    mapping(address => string[]) public itemTxList;\n\n    constructor(uint256 chainId_) \n        EIP712Base(DOMAIN_NAME, DOMAIN_VERSION, chainId_) {\n    }\n\n    modifier isOwner() {\n        require(\n            msgSender() == owner(), \n            \"MorpheusNftManagerInfo: not owner\"\n        );\n        _;\n    }\n    \n    function addCollection(address userAddr_, address contractAddr_) public {\n        collectionList[userAddr_].push(contractAddr_);\n    }\n\n    function getCollection(address userAddr_) public view returns (address[] memory) {\n        return collectionList[userAddr_];\n    }\n\n    function clearCollection(address userAddr_) public isOwner {\n        address[] memory empty;\n        collectionList[userAddr_] = empty;\n    }\n\n    function addItemTx(address userAddr_, string memory txHash_) public {\n        itemTxList[userAddr_].push(txHash_);\n    }\n\n    function getItemTx(address userAddr_) public view returns (string[] memory) {\n        return itemTxList[userAddr_];\n    }\n\n    function clearItemTx(address userAddr_) public isOwner {\n        string[] memory empty;\n        itemTxList[userAddr_] = empty;\n    }\n}\n",
  "sourcePath": "/home/trung/Work/reference/morphe/task/dApp/ml-NFT-tool/erc721/contracts/MorpheusNftManagerInfo.sol",
  "compiler": {
    "name": "solc",
    "version": "0.8.0+commit.c7dfd78e.Emscripten.clang"
  },
  "schemaVersion": "3.3.4",
  "updatedAt": "2021-04-18T14:21:15.099Z",
  "devdoc": {
    "kind": "dev",
    "methods": {
      "owner()": {
        "details": "Returns the address of the current owner."
      },
      "renounceOwnership()": {
        "details": "Leaves the contract without owner. It will not be possible to call `onlyOwner` functions anymore. Can only be called by the current owner. NOTE: Renouncing ownership will leave the contract without an owner, thereby removing any functionality that is only available to the owner."
      },
      "transferOwnership(address)": {
        "details": "Transfers ownership of the contract to a new account (`newOwner`). Can only be called by the current owner."
      }
    },
    "version": 1
  },
  "userdoc": {
    "kind": "user",
    "methods": {},
    "version": 1
  }
}