{
  "contractName": "MorpheusNftManagerInfo",
  "abi": [
    {
      "anonymous": false,
      "inputs": [
        {
          "indexed": true,
          "internalType": "address",
          "name": "previousOwner",
          "type": "address"
        },
        {
          "indexed": true,
          "internalType": "address",
          "name": "newOwner",
          "type": "address"
        }
      ],
      "name": "OwnershipTransferred",
      "type": "event"
    },
    {
      "inputs": [
        {
          "internalType": "address",
          "name": "",
          "type": "address"
        },
        {
          "internalType": "uint256",
          "name": "",
          "type": "uint256"
        }
      ],
      "name": "collectionList",
      "outputs": [
        {
          "internalType": "address",
          "name": "",
          "type": "address"
        }
      ],
      "stateMutability": "view",
      "type": "function"
    },
    {
      "inputs": [],
      "name": "owner",
      "outputs": [
        {
          "internalType": "address",
          "name": "",
          "type": "address"
        }
      ],
      "stateMutability": "view",
      "type": "function"
    },
    {
      "inputs": [],
      "name": "renounceOwnership",
      "outputs": [],
      "stateMutability": "nonpayable",
      "type": "function"
    },
    {
      "inputs": [
        {
          "internalType": "address",
          "name": "newOwner",
          "type": "address"
        }
      ],
      "name": "transferOwnership",
      "outputs": [],
      "stateMutability": "nonpayable",
      "type": "function"
    },
    {
      "inputs": [
        {
          "internalType": "address",
          "name": "userAddr_",
          "type": "address"
        },
        {
          "internalType": "address",
          "name": "contractAddr_",
          "type": "address"
        }
      ],
      "name": "add",
      "outputs": [],
      "stateMutability": "nonpayable",
      "type": "function"
    },
    {
      "inputs": [
        {
          "internalType": "address",
          "name": "userAddr_",
          "type": "address"
        }
      ],
      "name": "get",
      "outputs": [
        {
          "internalType": "address[]",
          "name": "",
          "type": "address[]"
        }
      ],
      "stateMutability": "view",
      "type": "function"
    },
    {
      "inputs": [
        {
          "internalType": "address",
          "name": "userAddr_",
          "type": "address"
        }
      ],
      "name": "clear",
      "outputs": [],
      "stateMutability": "nonpayable",
      "type": "function"
    }
  ],
  "bytecode": "0x608060405234801561001057600080fd5b50600061001b61006a565b600080546001600160a01b0319166001600160a01b0383169081178255604051929350917f8be0079c531659141344cd1fd0a4f28419497f9722a3daafe3b4186f6b6457e0908290a35061006e565b3390565b6105f48061007d6000396000f3fe608060405234801561001057600080fd5b506004361061007d5760003560e01c80638da5cb5b1161005b5780638da5cb5b146100b2578063c2bc2efc146100d0578063d0165ee6146100f0578063f2fde38b146101035761007d565b80633d0a40611461008257806352c28fab14610097578063715018a6146100aa575b600080fd5b610095610090366004610466565b610116565b005b6100956100a5366004610487565b61018d565b6100956101ca565b6100ba610253565b6040516100c791906104e2565b60405180910390f35b6100e36100de366004610466565b610262565b6040516100c791906104f6565b6100ba6100fe3660046104b9565b6102d9565b610095610111366004610466565b610311565b61011e6103d1565b6001600160a01b031661012f610253565b6001600160a01b03161461015e5760405162461bcd60e51b815260040161015590610589565b60405180910390fd5b6001600160a01b0381166000908152600160205260409020606080519091610188916080906103d5565b505050565b6001600160a01b03918216600090815260016020818152604083208054928301815583529091200180546001600160a01b03191691909216179055565b6101d26103d1565b6001600160a01b03166101e3610253565b6001600160a01b0316146102095760405162461bcd60e51b815260040161015590610589565b600080546040516001600160a01b03909116907f8be0079c531659141344cd1fd0a4f28419497f9722a3daafe3b4186f6b6457e0908390a3600080546001600160a01b0319169055565b6000546001600160a01b031690565b6001600160a01b0381166000908152600160209081526040918290208054835181840281018401909452808452606093928301828280156102cc57602002820191906000526020600020905b81546001600160a01b031681526001909101906020018083116102ae575b505050505090505b919050565b600160205281600052604060002081815481106102f557600080fd5b6000918252602090912001546001600160a01b03169150829050565b6103196103d1565b6001600160a01b031661032a610253565b6001600160a01b0316146103505760405162461bcd60e51b815260040161015590610589565b6001600160a01b0381166103765760405162461bcd60e51b815260040161015590610543565b600080546040516001600160a01b03808516939216917f8be0079c531659141344cd1fd0a4f28419497f9722a3daafe3b4186f6b6457e091a3600080546001600160a01b0319166001600160a01b0392909216919091179055565b3390565b82805482825590600052602060002090810192821561042a579160200282015b8281111561042a57825182546001600160a01b0319166001600160a01b039091161782556020909201916001909101906103f5565b5061043692915061043a565b5090565b5b80821115610436576000815560010161043b565b80356001600160a01b03811681146102d457600080fd5b600060208284031215610477578081fd5b6104808261044f565b9392505050565b60008060408385031215610499578081fd5b6104a28361044f565b91506104b06020840161044f565b90509250929050565b600080604083850312156104cb578182fd5b6104d48361044f565b946020939093013593505050565b6001600160a01b0391909116815260200190565b6020808252825182820181905260009190848201906040850190845b818110156105375783516001600160a01b031683529284019291840191600101610512565b50909695505050505050565b60208082526026908201527f4f776e61626c653a206e6577206f776e657220697320746865207a65726f206160408201526564647265737360d01b606082015260800190565b6020808252818101527f4f776e61626c653a2063616c6c6572206973206e6f7420746865206f776e657260408201526060019056fea264697066735822122090a3742d27bca54d803beba2be7e4ba8fe0f5360e7f27dfd81163b495757df5864736f6c63430008000033",
  "immutableReferences": {},
  "source": "// SPDX-License-Identifier: MIT\n\npragma solidity ^0.8.0;\n\nimport \"@openzeppelin/contracts/access/Ownable.sol\";\n\n// MorpheusNftManagerInfo\ncontract MorpheusNftManagerInfo is Ownable {\n    \n    // One user address can create multiple NFT contract addresses\n    mapping(address => address[]) public collectionList;\n\n    // Extend for itemList\n    \n    function add(address userAddr_, address contractAddr_) public {\n        collectionList[userAddr_].push(contractAddr_);\n    }\n\n    function get(address userAddr_) public view returns (address[] memory) {\n        return collectionList[userAddr_];\n    }\n\n    function clear(address userAddr_) public onlyOwner {\n        address[] memory empty;\n        collectionList[userAddr_] = empty;\n    }\n}\n",
  "sourcePath": "/home/trung/Work/reference/morphe/task/dApp/ml-NFT-tool/erc721/contracts/MorpheusNftManagerInfo.sol",
  "compiler": {
    "name": "solc",
    "version": "0.8.0+commit.c7dfd78e.Emscripten.clang"
  },
  "schemaVersion": "3.3.4",
  "updatedAt": "2021-04-18T06:30:29.020Z",
  "devdoc": {
    "kind": "dev",
    "methods": {
      "owner()": {
        "details": "Returns the address of the current owner."
      },
      "renounceOwnership()": {
        "details": "Leaves the contract without owner. It will not be possible to call `onlyOwner` functions anymore. Can only be called by the current owner. NOTE: Renouncing ownership will leave the contract without an owner, thereby removing any functionality that is only available to the owner."
      },
      "transferOwnership(address)": {
        "details": "Transfers ownership of the contract to a new account (`newOwner`). Can only be called by the current owner."
      }
    },
    "version": 1
  },
  "userdoc": {
    "kind": "user",
    "methods": {},
    "version": 1
  }
}